{
  "contractName": "LoanContract",
  "abi": [
    {
      "constant": true,
      "inputs": [],
      "name": "payBack",
      "outputs": [
        {
          "name": "",
          "type": "uint256"
        }
      ],
      "payable": false,
      "stateMutability": "view",
      "type": "function"
    },
    {
      "constant": true,
      "inputs": [],
      "name": "time",
      "outputs": [
        {
          "name": "",
          "type": "uint256"
        }
      ],
      "payable": false,
      "stateMutability": "view",
      "type": "function"
    },
    {
      "constant": true,
      "inputs": [],
      "name": "tokenId",
      "outputs": [
        {
          "name": "",
          "type": "uint256"
        }
      ],
      "payable": false,
      "stateMutability": "view",
      "type": "function"
    },
    {
      "constant": true,
      "inputs": [],
      "name": "customer",
      "outputs": [
        {
          "name": "",
          "type": "address"
        }
      ],
      "payable": false,
      "stateMutability": "view",
      "type": "function"
    },
    {
      "constant": true,
      "inputs": [],
      "name": "payOffAmount",
      "outputs": [
        {
          "name": "",
          "type": "uint256"
        }
      ],
      "payable": false,
      "stateMutability": "view",
      "type": "function"
    },
    {
      "constant": true,
      "inputs": [],
      "name": "company",
      "outputs": [
        {
          "name": "",
          "type": "address"
        }
      ],
      "payable": false,
      "stateMutability": "view",
      "type": "function"
    },
    {
      "constant": true,
      "inputs": [],
      "name": "dueDate",
      "outputs": [
        {
          "name": "",
          "type": "uint256"
        }
      ],
      "payable": false,
      "stateMutability": "view",
      "type": "function"
    },
    {
      "constant": true,
      "inputs": [],
      "name": "collateral",
      "outputs": [
        {
          "name": "",
          "type": "uint256"
        }
      ],
      "payable": false,
      "stateMutability": "view",
      "type": "function"
    },
    {
      "constant": true,
      "inputs": [],
      "name": "token",
      "outputs": [
        {
          "name": "",
          "type": "address"
        }
      ],
      "payable": false,
      "stateMutability": "view",
      "type": "function"
    },
    {
      "inputs": [
        {
          "name": "_lender",
          "type": "address"
        },
        {
          "name": "_borrower",
          "type": "address"
        },
        {
          "name": "_collateral",
          "type": "uint256"
        },
        {
          "name": "_payOffAmount",
          "type": "uint256"
        },
        {
          "name": "_payBack",
          "type": "uint256"
        },
        {
          "name": "_duration",
          "type": "uint256"
        }
      ],
      "payable": false,
      "stateMutability": "nonpayable",
      "type": "constructor"
    },
    {
      "constant": false,
      "inputs": [],
      "name": "getTime",
      "outputs": [],
      "payable": false,
      "stateMutability": "nonpayable",
      "type": "function"
    },
    {
      "constant": false,
      "inputs": [],
      "name": "payLoan",
      "outputs": [],
      "payable": true,
      "stateMutability": "payable",
      "type": "function"
    }
  ],
  "bytecode": "0x608060405234801561001057600080fd5b5060405160c080612798833981018060405281019080805190602001909291908051906020019092919080519060200190929190805190602001909291908051906020019092919080519060200190929190505050856000806101000a81548173ffffffffffffffffffffffffffffffffffffffff021916908373ffffffffffffffffffffffffffffffffffffffff16021790555084600160006101000a81548173ffffffffffffffffffffffffffffffffffffffff021916908373ffffffffffffffffffffffffffffffffffffffff1602179055506100ee610176565b604051809103906000f08015801561010a573d6000803e3d6000fd5b50600260006101000a81548173ffffffffffffffffffffffffffffffffffffffff021916908373ffffffffffffffffffffffffffffffffffffffff1602179055508360048190555082600581905550816006819055508060085401600781905550505050505050610186565b6040516120508061074883390190565b6105b3806101956000396000f3006080604052600436106100af576000357c0100000000000000000000000000000000000000000000000000000000900463ffffffff168063019f64cc146100b457806316ada547146100df57806317d70f7c1461010a5780632804b2c014610135578063472eb03d1461018c578063557ed1ba1461019657806356301063146101ad5780636904c94d146101d8578063786716fe1461022f578063d8dfeb451461025a578063fc0c546a14610285575b600080fd5b3480156100c057600080fd5b506100c96102dc565b6040518082815260200191505060405180910390f35b3480156100eb57600080fd5b506100f46102e2565b6040518082815260200191505060405180910390f35b34801561011657600080fd5b5061011f6102e8565b6040518082815260200191505060405180910390f35b34801561014157600080fd5b5061014a6102ee565b604051808273ffffffffffffffffffffffffffffffffffffffff1673ffffffffffffffffffffffffffffffffffffffff16815260200191505060405180910390f35b610194610314565b005b3480156101a257600080fd5b506101ab610521565b005b3480156101b957600080fd5b506101c261052a565b6040518082815260200191505060405180910390f35b3480156101e457600080fd5b506101ed610530565b604051808273ffffffffffffffffffffffffffffffffffffffff1673ffffffffffffffffffffffffffffffffffffffff16815260200191505060405180910390f35b34801561023b57600080fd5b50610244610555565b6040518082815260200191505060405180910390f35b34801561026657600080fd5b5061026f61055b565b6040518082815260200191505060405180910390f35b34801561029157600080fd5b5061029a610561565b604051808273ffffffffffffffffffffffffffffffffffffffff1673ffffffffffffffffffffffffffffffffffffffff16815260200191505060405180910390f35b60065481565b60085481565b60035481565b600160009054906101000a900473ffffffffffffffffffffffffffffffffffffffff1681565b60075460085410151561032657600080fd5b6000809054906101000a900473ffffffffffffffffffffffffffffffffffffffff1673ffffffffffffffffffffffffffffffffffffffff166108fc6005549081150290604051600060405180830381858888f1935050505015801561038f573d6000803e3d6000fd5b50600260009054906101000a900473ffffffffffffffffffffffffffffffffffffffff1673ffffffffffffffffffffffffffffffffffffffff166342842e0e6000809054906101000a900473ffffffffffffffffffffffffffffffffffffffff16600160009054906101000a900473ffffffffffffffffffffffffffffffffffffffff166003546040518463ffffffff167c0100000000000000000000000000000000000000000000000000000000028152600401808473ffffffffffffffffffffffffffffffffffffffff1673ffffffffffffffffffffffffffffffffffffffff1681526020018373ffffffffffffffffffffffffffffffffffffffff1673ffffffffffffffffffffffffffffffffffffffff1681526020018281526020019350505050600060405180830381600087803b1580156104ce57600080fd5b505af11580156104e2573d6000803e3d6000fd5b50505050600160009054906101000a900473ffffffffffffffffffffffffffffffffffffffff1673ffffffffffffffffffffffffffffffffffffffff16ff5b42600881905550565b60055481565b6000809054906101000a900473ffffffffffffffffffffffffffffffffffffffff1681565b60075481565b60045481565b600260009054906101000a900473ffffffffffffffffffffffffffffffffffffffff16815600a165627a7a7230582032232eb4ef9f1b792e3acc383cb9244f65cf1d01a65aa589e28bf8614f749ad9002960806040523480156200001157600080fd5b506040805190810160405280600b81526020017f204c6f616e546f6b656e200000000000000000000000000000000000000000008152506040805190810160405280600581526020017f204c544320000000000000000000000000000000000000000000000000000000815250620000bb6301ffc9a77c010000000000000000000000000000000000000000000000000000000002620001e9640100000000026401000000009004565b620000f86380ac58cd7c010000000000000000000000000000000000000000000000000000000002620001e9640100000000026401000000009004565b62000135634f558e797c010000000000000000000000000000000000000000000000000000000002620001e9640100000000026401000000009004565b81600590805190602001906200014d929190620002a7565b50806006908051906020019062000166929190620002a7565b50620001a463780e9d637c010000000000000000000000000000000000000000000000000000000002620001e9640100000000026401000000009004565b620001e1635b5e139f7c010000000000000000000000000000000000000000000000000000000002620001e9640100000000026401000000009004565b505062000356565b63ffffffff7c010000000000000000000000000000000000000000000000000000000002817bffffffffffffffffffffffffffffffffffffffffffffffffffffffff1916141515156200023b57600080fd5b6001600080837bffffffffffffffffffffffffffffffffffffffffffffffffffffffff19167bffffffffffffffffffffffffffffffffffffffffffffffffffffffff1916815260200190815260200160002060006101000a81548160ff02191690831515021790555050565b828054600181600116156101000203166002900490600052602060002090601f016020900481019282601f10620002ea57805160ff19168380011785556200031b565b828001600101855582156200031b579182015b828111156200031a578251825591602001919060010190620002fd565b5b5090506200032a91906200032e565b5090565b6200035391905b808211156200034f57600081600090555060010162000335565b5090565b90565b611cea80620003666000396000f300608060405260043610610107576000357c0100000000000000000000000000000000000000000000000000000000900463ffffffff16806301ffc9a71461010c57806306fdde0314610170578063081812fc14610200578063095ea7b31461026d57806318160ddd146102ba57806319fa8f50146102e557806323b872dd1461034e5780632f745c59146103bb57806340c10f191461041c57806342842e0e146104695780634f558e79146104d65780634f6ccce71461051b5780636352211e1461055c57806370a08231146105c957806395d89b4114610620578063a22cb465146106b0578063b88d4fde146106ff578063c87b56dd146107b2578063e985e9c514610858575b600080fd5b34801561011857600080fd5b5061015660048036038101908080357bffffffffffffffffffffffffffffffffffffffffffffffffffffffff191690602001909291905050506108d3565b604051808215151515815260200191505060405180910390f35b34801561017c57600080fd5b5061018561093a565b6040518080602001828103825283818151815260200191508051906020019080838360005b838110156101c55780820151818401526020810190506101aa565b50505050905090810190601f1680156101f25780820380516001836020036101000a031916815260200191505b509250505060405180910390f35b34801561020c57600080fd5b5061022b600480360381019080803590602001909291905050506109dc565b604051808273ffffffffffffffffffffffffffffffffffffffff1673ffffffffffffffffffffffffffffffffffffffff16815260200191505060405180910390f35b34801561027957600080fd5b506102b8600480360381019080803573ffffffffffffffffffffffffffffffffffffffff16906020019092919080359060200190929190505050610a19565b005b3480156102c657600080fd5b506102cf610b5e565b6040518082815260200191505060405180910390f35b3480156102f157600080fd5b506102fa610b6b565b60405180827bffffffffffffffffffffffffffffffffffffffffffffffffffffffff19167bffffffffffffffffffffffffffffffffffffffffffffffffffffffff1916815260200191505060405180910390f35b34801561035a57600080fd5b506103b9600480360381019080803573ffffffffffffffffffffffffffffffffffffffff169060200190929190803573ffffffffffffffffffffffffffffffffffffffff16906020019092919080359060200190929190505050610b92565b005b3480156103c757600080fd5b50610406600480360381019080803573ffffffffffffffffffffffffffffffffffffffff16906020019092919080359060200190929190505050610c9d565b6040518082815260200191505060405180910390f35b34801561042857600080fd5b50610467600480360381019080803573ffffffffffffffffffffffffffffffffffffffff16906020019092919080359060200190929190505050610d14565b005b34801561047557600080fd5b506104d4600480360381019080803573ffffffffffffffffffffffffffffffffffffffff169060200190929190803573ffffffffffffffffffffffffffffffffffffffff16906020019092919080359060200190929190505050610d22565b005b3480156104e257600080fd5b5061050160048036038101908080359060200190929190505050610d43565b604051808215151515815260200191505060405180910390f35b34801561052757600080fd5b5061054660048036038101908080359060200190929190505050610db5565b6040518082815260200191505060405180910390f35b34801561056857600080fd5b5061058760048036038101908080359060200190929190505050610ded565b604051808273ffffffffffffffffffffffffffffffffffffffff1673ffffffffffffffffffffffffffffffffffffffff16815260200191505060405180910390f35b3480156105d557600080fd5b5061060a600480360381019080803573ffffffffffffffffffffffffffffffffffffffff169060200190929190505050610e6b565b6040518082815260200191505060405180910390f35b34801561062c57600080fd5b50610635610eef565b6040518080602001828103825283818151815260200191508051906020019080838360005b8381101561067557808201518184015260208101905061065a565b50505050905090810190601f1680156106a25780820380516001836020036101000a031916815260200191505b509250505060405180910390f35b3480156106bc57600080fd5b506106fd600480360381019080803573ffffffffffffffffffffffffffffffffffffffff169060200190929190803515159060200190929190505050610f91565b005b34801561070b57600080fd5b506107b0600480360381019080803573ffffffffffffffffffffffffffffffffffffffff169060200190929190803573ffffffffffffffffffffffffffffffffffffffff16906020019092919080359060200190929190803590602001908201803590602001908080601f01602080910402602001604051908101604052809392919081815260200183838082843782019150505050505091929192905050506110cd565b005b3480156107be57600080fd5b506107dd600480360381019080803590602001909291905050506110f5565b6040518080602001828103825283818151815260200191508051906020019080838360005b8381101561081d578082015181840152602081019050610802565b50505050905090810190601f16801561084a5780820380516001836020036101000a031916815260200191505b509250505060405180910390f35b34801561086457600080fd5b506108b9600480360381019080803573ffffffffffffffffffffffffffffffffffffffff169060200190929190803573ffffffffffffffffffffffffffffffffffffffff1690602001909291905050506111be565b604051808215151515815260200191505060405180910390f35b6000806000837bffffffffffffffffffffffffffffffffffffffffffffffffffffffff19167bffffffffffffffffffffffffffffffffffffffffffffffffffffffff1916815260200190815260200160002060009054906101000a900460ff169050919050565b606060058054600181600116156101000203166002900480601f0160208091040260200160405190810160405280929190818152602001828054600181600116156101000203166002900480156109d25780601f106109a7576101008083540402835291602001916109d2565b820191906000526020600020905b8154815290600101906020018083116109b557829003601f168201915b5050505050905090565b60006002600083815260200190815260200160002060009054906101000a900473ffffffffffffffffffffffffffffffffffffffff169050919050565b6000610a2482610ded565b90508073ffffffffffffffffffffffffffffffffffffffff168373ffffffffffffffffffffffffffffffffffffffff1614151515610a6157600080fd5b8073ffffffffffffffffffffffffffffffffffffffff163373ffffffffffffffffffffffffffffffffffffffff161480610aa15750610aa081336111be565b5b1515610aac57600080fd5b826002600084815260200190815260200160002060006101000a81548173ffffffffffffffffffffffffffffffffffffffff021916908373ffffffffffffffffffffffffffffffffffffffff160217905550818373ffffffffffffffffffffffffffffffffffffffff168273ffffffffffffffffffffffffffffffffffffffff167f8c5be1e5ebec7d5bd14f71427d1e84f3dd0314c0f7b2291e5b200ac8c7c3b92560405160405180910390a4505050565b6000600980549050905090565b6301ffc9a77c01000000000000000000000000000000000000000000000000000000000281565b610b9c3382611252565b1515610ba757600080fd5b600073ffffffffffffffffffffffffffffffffffffffff168373ffffffffffffffffffffffffffffffffffffffff1614151515610be357600080fd5b600073ffffffffffffffffffffffffffffffffffffffff168273ffffffffffffffffffffffffffffffffffffffff1614151515610c1f57600080fd5b610c2983826112e7565b610c3383826113ea565b610c3d82826115a6565b808273ffffffffffffffffffffffffffffffffffffffff168473ffffffffffffffffffffffffffffffffffffffff167fddf252ad1be2c89b69c2b068fc378daa952ba7f163c4a11628f55a4df523b3ef60405160405180910390a4505050565b6000610ca883610e6b565b82101515610cb557600080fd5b600760008473ffffffffffffffffffffffffffffffffffffffff1673ffffffffffffffffffffffffffffffffffffffff16815260200190815260200160002082815481101515610d0157fe5b9060005260206000200154905092915050565b610d1e828261167d565b5050565b610d3e83838360206040519081016040528060008152506110cd565b505050565b6000806001600084815260200190815260200160002060009054906101000a900473ffffffffffffffffffffffffffffffffffffffff169050600073ffffffffffffffffffffffffffffffffffffffff168173ffffffffffffffffffffffffffffffffffffffff161415915050919050565b6000610dbf610b5e565b82101515610dcc57600080fd5b600982815481101515610ddb57fe5b90600052602060002001549050919050565b6000806001600084815260200190815260200160002060009054906101000a900473ffffffffffffffffffffffffffffffffffffffff169050600073ffffffffffffffffffffffffffffffffffffffff168173ffffffffffffffffffffffffffffffffffffffff1614151515610e6257600080fd5b80915050919050565b60008073ffffffffffffffffffffffffffffffffffffffff168273ffffffffffffffffffffffffffffffffffffffff1614151515610ea857600080fd5b600360008373ffffffffffffffffffffffffffffffffffffffff1673ffffffffffffffffffffffffffffffffffffffff168152602001908152602001600020549050919050565b606060068054600181600116156101000203166002900480601f016020809104026020016040519081016040528092919081815260200182805460018160011615610100020316600290048015610f875780601f10610f5c57610100808354040283529160200191610f87565b820191906000526020600020905b815481529060010190602001808311610f6a57829003601f168201915b5050505050905090565b3373ffffffffffffffffffffffffffffffffffffffff168273ffffffffffffffffffffffffffffffffffffffff1614151515610fcc57600080fd5b80600460003373ffffffffffffffffffffffffffffffffffffffff1673ffffffffffffffffffffffffffffffffffffffff16815260200190815260200160002060008473ffffffffffffffffffffffffffffffffffffffff1673ffffffffffffffffffffffffffffffffffffffff16815260200190815260200160002060006101000a81548160ff0219169083151502179055508173ffffffffffffffffffffffffffffffffffffffff163373ffffffffffffffffffffffffffffffffffffffff167f17307eab39ab6107e8899845ad3d59bd9653f200f220920489ca2b5937696c3183604051808215151515815260200191505060405180910390a35050565b6110d8848484610b92565b6110e4848484846116d4565b15156110ef57600080fd5b50505050565b606061110082610d43565b151561110b57600080fd5b600b60008381526020019081526020016000208054600181600116156101000203166002900480601f0160208091040260200160405190810160405280929190818152602001828054600181600116156101000203166002900480156111b25780601f10611187576101008083540402835291602001916111b2565b820191906000526020600020905b81548152906001019060200180831161119557829003601f168201915b50505050509050919050565b6000600460008473ffffffffffffffffffffffffffffffffffffffff1673ffffffffffffffffffffffffffffffffffffffff16815260200190815260200160002060008373ffffffffffffffffffffffffffffffffffffffff1673ffffffffffffffffffffffffffffffffffffffff16815260200190815260200160002060009054906101000a900460ff16905092915050565b60008061125e83610ded565b90508073ffffffffffffffffffffffffffffffffffffffff168473ffffffffffffffffffffffffffffffffffffffff1614806112cd57508373ffffffffffffffffffffffffffffffffffffffff166112b5846109dc565b73ffffffffffffffffffffffffffffffffffffffff16145b806112de57506112dd81856111be565b5b91505092915050565b8173ffffffffffffffffffffffffffffffffffffffff1661130782610ded565b73ffffffffffffffffffffffffffffffffffffffff1614151561132957600080fd5b600073ffffffffffffffffffffffffffffffffffffffff166002600083815260200190815260200160002060009054906101000a900473ffffffffffffffffffffffffffffffffffffffff1673ffffffffffffffffffffffffffffffffffffffff161415156113e65760006002600083815260200190815260200160002060006101000a81548173ffffffffffffffffffffffffffffffffffffffff021916908373ffffffffffffffffffffffffffffffffffffffff1602179055505b5050565b60008060006113f985856118f6565b600860008581526020019081526020016000205492506114656001600760008873ffffffffffffffffffffffffffffffffffffffff1673ffffffffffffffffffffffffffffffffffffffff16815260200190815260200160002080549050611a2590919063ffffffff16565b9150600760008673ffffffffffffffffffffffffffffffffffffffff1673ffffffffffffffffffffffffffffffffffffffff168152602001908152602001600020828154811015156114b357fe5b9060005260206000200154905080600760008773ffffffffffffffffffffffffffffffffffffffff1673ffffffffffffffffffffffffffffffffffffffff1681526020019081526020016000208481548110151561150d57fe5b9060005260206000200181905550600760008673ffffffffffffffffffffffffffffffffffffffff1673ffffffffffffffffffffffffffffffffffffffff16815260200190815260200160002080548091906001900361156d9190611c6d565b50600060086000868152602001908152602001600020819055508260086000838152602001908152602001600020819055505050505050565b60006115b28383611a3e565b600760008473ffffffffffffffffffffffffffffffffffffffff1673ffffffffffffffffffffffffffffffffffffffff168152602001908152602001600020805490509050600760008473ffffffffffffffffffffffffffffffffffffffff1673ffffffffffffffffffffffffffffffffffffffff168152602001908152602001600020829080600181540180825580915050906001820390600052602060002001600090919290919091505550806008600084815260200190815260200160002081905550505050565b6116878282611b98565b600980549050600a60008381526020019081526020016000208190555060098190806001815401808255809150509060018203906000526020600020016000909192909190915055505050565b6000806116f68573ffffffffffffffffffffffffffffffffffffffff16611c3e565b151561170557600191506118ed565b8473ffffffffffffffffffffffffffffffffffffffff1663150b7a02338887876040518563ffffffff167c0100000000000000000000000000000000000000000000000000000000028152600401808573ffffffffffffffffffffffffffffffffffffffff1673ffffffffffffffffffffffffffffffffffffffff1681526020018473ffffffffffffffffffffffffffffffffffffffff1673ffffffffffffffffffffffffffffffffffffffff16815260200183815260200180602001828103825283818151815260200191508051906020019080838360005b838110156117fa5780820151818401526020810190506117df565b50505050905090810190601f1680156118275780820380516001836020036101000a031916815260200191505b5095505050505050602060405180830381600087803b15801561184957600080fd5b505af115801561185d573d6000803e3d6000fd5b505050506040513d602081101561187357600080fd5b8101908080519060200190929190505050905063150b7a027c0100000000000000000000000000000000000000000000000000000000027bffffffffffffffffffffffffffffffffffffffffffffffffffffffff1916817bffffffffffffffffffffffffffffffffffffffffffffffffffffffff19161491505b50949350505050565b8173ffffffffffffffffffffffffffffffffffffffff1661191682610ded565b73ffffffffffffffffffffffffffffffffffffffff1614151561193857600080fd5b61198b6001600360008573ffffffffffffffffffffffffffffffffffffffff1673ffffffffffffffffffffffffffffffffffffffff16815260200190815260200160002054611a2590919063ffffffff16565b600360008473ffffffffffffffffffffffffffffffffffffffff1673ffffffffffffffffffffffffffffffffffffffff1681526020019081526020016000208190555060006001600083815260200190815260200160002060006101000a81548173ffffffffffffffffffffffffffffffffffffffff021916908373ffffffffffffffffffffffffffffffffffffffff1602179055505050565b6000828211151515611a3357fe5b818303905092915050565b600073ffffffffffffffffffffffffffffffffffffffff166001600083815260200190815260200160002060009054906101000a900473ffffffffffffffffffffffffffffffffffffffff1673ffffffffffffffffffffffffffffffffffffffff16141515611aac57600080fd5b816001600083815260200190815260200160002060006101000a81548173ffffffffffffffffffffffffffffffffffffffff021916908373ffffffffffffffffffffffffffffffffffffffff160217905550611b516001600360008573ffffffffffffffffffffffffffffffffffffffff1673ffffffffffffffffffffffffffffffffffffffff16815260200190815260200160002054611c5190919063ffffffff16565b600360008473ffffffffffffffffffffffffffffffffffffffff1673ffffffffffffffffffffffffffffffffffffffff168152602001908152602001600020819055505050565b600073ffffffffffffffffffffffffffffffffffffffff168273ffffffffffffffffffffffffffffffffffffffff1614151515611bd457600080fd5b611bde82826115a6565b808273ffffffffffffffffffffffffffffffffffffffff16600073ffffffffffffffffffffffffffffffffffffffff167fddf252ad1be2c89b69c2b068fc378daa952ba7f163c4a11628f55a4df523b3ef60405160405180910390a45050565b600080823b905060008111915050919050565b60008183019050828110151515611c6457fe5b80905092915050565b815481835581811115611c9457818360005260206000209182019101611c939190611c99565b5b505050565b611cbb91905b80821115611cb7576000816000905550600101611c9f565b5090565b905600a165627a7a72305820fc2e6e6f634e7fba383c2433b1ac1496981939d443c466b9b58c0fcd56a52e0e0029",
  "source": "pragma solidity ^0.4.24;\r\n\r\nimport \"zeppelin-solidity/contracts/token/ERC721/ERC721Token.sol\";\r\nimport \"zeppelin-solidity/contracts/token/ERC20/StandardToken.sol\";\r\n\r\nimport \"./LoanToken.sol\";\r\nimport \"./LiCoin.sol\";\r\n\r\ncontract LoanContract {\r\n    //company: 0x9Bd41Db18ed0Bd1AD0747eA709CE74522F44a4c1\r\n    address public company; //company: issue bond\r\n    address public customer; //buyer\r\n    LoanToken public token; //company send to customer as a collateral\r\n    uint256 public tokenId;\r\n    uint256 public collateral; //几个token\r\n    uint256 public payOffAmount;//customer give money to company\r\n    uint256 public payBack;\r\n    uint256 public dueDate; //duration\r\n    uint256 public time;\r\n\r\n    function getTime() external {\r\n        time = block.timestamp;\r\n    }\r\n\r\n    constructor (address _lender, address _borrower, uint256 _collateral, uint256 _payOffAmount, uint256 _payBack, uint256 _duration) public {\r\n        company = _lender;\r\n        customer = _borrower;\r\n        token = new LoanToken();\r\n        //tokenId = _tokenId;\r\n        collateral = _collateral;\r\n        payOffAmount = _payOffAmount;\r\n        payBack = _payBack;\r\n        dueDate = time + _duration;\r\n    }\r\n\r\n    //customer give money to company, company transfer token to customer\r\n    function payLoan() public payable {\r\n        require(time < dueDate);\r\n        company.transfer(payOffAmount);\r\n        token.safeTransferFrom(company, customer, tokenId);\r\n\r\n        selfdestruct(customer);\r\n    }\r\n//\r\n//    //after time, send money+interest to customer\r\n//    function payMoney() public payable {\r\n//        require(block.timestamp >= dueDate);\r\n//        require(company.balance > payBack);\r\n//        token.safeTransferFrom(customer, company, tokenId);\r\n//        address(this).transfer(payBack);\r\n//\r\n//        selfdestruct(company);\r\n//    }\r\n}\r\n\r\n\r\n",
  "sourcePath": "E:/myproject/contracts/LoanContract.sol",
  "compiler": {
    "name": "solc",
    "version": "0.4.24+commit.e67f0147.Emscripten.clang"
  },
  "schemaVersion": "3.4.1",
  "updatedAt": "2021-06-17T21:32:17.145Z",
  "devdoc": {
    "methods": {}
  },
  "userdoc": {
    "methods": {}
  }
}