{
  "contractName": "LoanRequest",
  "abi": [
    {
      "constant": true,
      "inputs": [],
      "name": "payBack",
      "outputs": [
        {
          "name": "",
          "type": "uint256"
        }
      ],
      "payable": false,
      "stateMutability": "view",
      "type": "function"
    },
    {
      "constant": true,
      "inputs": [],
      "name": "duration",
      "outputs": [
        {
          "name": "",
          "type": "uint256"
        }
      ],
      "payable": false,
      "stateMutability": "view",
      "type": "function"
    },
    {
      "constant": true,
      "inputs": [],
      "name": "tokenId",
      "outputs": [
        {
          "name": "",
          "type": "uint256"
        }
      ],
      "payable": false,
      "stateMutability": "view",
      "type": "function"
    },
    {
      "constant": true,
      "inputs": [],
      "name": "customer",
      "outputs": [
        {
          "name": "",
          "type": "address"
        }
      ],
      "payable": false,
      "stateMutability": "view",
      "type": "function"
    },
    {
      "constant": true,
      "inputs": [],
      "name": "payOffAmount",
      "outputs": [
        {
          "name": "",
          "type": "uint256"
        }
      ],
      "payable": false,
      "stateMutability": "view",
      "type": "function"
    },
    {
      "constant": true,
      "inputs": [],
      "name": "company",
      "outputs": [
        {
          "name": "",
          "type": "address"
        }
      ],
      "payable": false,
      "stateMutability": "view",
      "type": "function"
    },
    {
      "constant": true,
      "inputs": [],
      "name": "currentTime",
      "outputs": [
        {
          "name": "",
          "type": "uint256"
        }
      ],
      "payable": false,
      "stateMutability": "view",
      "type": "function"
    },
    {
      "constant": true,
      "inputs": [],
      "name": "loan",
      "outputs": [
        {
          "name": "",
          "type": "address"
        }
      ],
      "payable": false,
      "stateMutability": "view",
      "type": "function"
    },
    {
      "constant": true,
      "inputs": [],
      "name": "collateral",
      "outputs": [
        {
          "name": "",
          "type": "uint256"
        }
      ],
      "payable": false,
      "stateMutability": "view",
      "type": "function"
    },
    {
      "inputs": [
        {
          "name": "_collateral",
          "type": "uint256"
        },
        {
          "name": "_payOffAmount",
          "type": "uint256"
        },
        {
          "name": "_interestRate",
          "type": "uint256"
        },
        {
          "name": "_duration",
          "type": "uint256"
        }
      ],
      "payable": false,
      "stateMutability": "nonpayable",
      "type": "constructor"
    },
    {
      "constant": false,
      "inputs": [],
      "name": "lendEther",
      "outputs": [],
      "payable": true,
      "stateMutability": "payable",
      "type": "function"
    }
  ],
  "bytecode": "0x6080604052739bd41db18ed0bd1ad0747ea709ce74522f44a4c16000806101000a81548173ffffffffffffffffffffffffffffffffffffffff021916908373ffffffffffffffffffffffffffffffffffffffff16021790555033600160006101000a81548173ffffffffffffffffffffffffffffffffffffffff021916908373ffffffffffffffffffffffffffffffffffffffff1602179055503480156100a557600080fd5b50604051608080612a3283398101806040528101908080519060200190929190805190602001909291908051906020019092919080519060200190929190505050836003819055508260048190555081600101830260058190555080600681905550505050506129188061011a6000396000f3006080604052600436106100a4576000357c0100000000000000000000000000000000000000000000000000000000900463ffffffff168063019f64cc146100a95780630fb5a6b4146100d457806317d70f7c146100ff5780632804b2c01461012a57806356301063146101815780636904c94d146101ac57806376e40c9c14610203578063d18e81b31461020d578063d285b7b414610238578063d8dfeb451461028f575b600080fd5b3480156100b557600080fd5b506100be6102ba565b6040518082815260200191505060405180910390f35b3480156100e057600080fd5b506100e96102c0565b6040518082815260200191505060405180910390f35b34801561010b57600080fd5b506101146102c6565b6040518082815260200191505060405180910390f35b34801561013657600080fd5b5061013f6102cc565b604051808273ffffffffffffffffffffffffffffffffffffffff1673ffffffffffffffffffffffffffffffffffffffff16815260200191505060405180910390f35b34801561018d57600080fd5b506101966102f2565b6040518082815260200191505060405180910390f35b3480156101b857600080fd5b506101c16102f8565b604051808273ffffffffffffffffffffffffffffffffffffffff1673ffffffffffffffffffffffffffffffffffffffff16815260200191505060405180910390f35b61020b61031d565b005b34801561021957600080fd5b5061022261045a565b6040518082815260200191505060405180910390f35b34801561024457600080fd5b5061024d610460565b604051808273ffffffffffffffffffffffffffffffffffffffff1673ffffffffffffffffffffffffffffffffffffffff16815260200191505060405180910390f35b34801561029b57600080fd5b506102a4610486565b6040518082815260200191505060405180910390f35b60055481565b60065481565b60025481565b600160009054906101000a900473ffffffffffffffffffffffffffffffffffffffff1681565b60045481565b6000809054906101000a900473ffffffffffffffffffffffffffffffffffffffff1681565b6000809054906101000a900473ffffffffffffffffffffffffffffffffffffffff16600160009054906101000a900473ffffffffffffffffffffffffffffffffffffffff1660035460045460055460065461037661048c565b808773ffffffffffffffffffffffffffffffffffffffff1673ffffffffffffffffffffffffffffffffffffffff1681526020018673ffffffffffffffffffffffffffffffffffffffff1673ffffffffffffffffffffffffffffffffffffffff1681526020018581526020018481526020018381526020018281526020019650505050505050604051809103906000f080158015610417573d6000803e3d6000fd5b50600860006101000a81548173ffffffffffffffffffffffffffffffffffffffff021916908373ffffffffffffffffffffffffffffffffffffffff160217905550565b60075481565b600860009054906101000a900473ffffffffffffffffffffffffffffffffffffffff1681565b60035481565b6040516124508061049d833901905600608060405234801561001057600080fd5b5060405160c080612450833981018060405281019080805190602001909291908051906020019092919080519060200190929190805190602001909291908051906020019092919080519060200190929190505050856000806101000a81548173ffffffffffffffffffffffffffffffffffffffff021916908373ffffffffffffffffffffffffffffffffffffffff16021790555084600160006101000a81548173ffffffffffffffffffffffffffffffffffffffff021916908373ffffffffffffffffffffffffffffffffffffffff1602179055506100ee610176565b604051809103906000f08015801561010a573d6000803e3d6000fd5b50600260006101000a81548173ffffffffffffffffffffffffffffffffffffffff021916908373ffffffffffffffffffffffffffffffffffffffff1602179055508360048190555082600581905550816006819055508060085401600781905550505050505050610186565b604051611f2a8061052683390190565b610391806101956000396000f3006080604052600436106100a4576000357c0100000000000000000000000000000000000000000000000000000000900463ffffffff168063019f64cc146100a957806316ada547146100d457806317d70f7c146100ff5780632804b2c01461012a578063557ed1ba1461018157806356301063146101985780636904c94d146101c3578063786716fe1461021a578063d8dfeb4514610245578063fc0c546a14610270575b600080fd5b3480156100b557600080fd5b506100be6102c7565b6040518082815260200191505060405180910390f35b3480156100e057600080fd5b506100e96102cd565b6040518082815260200191505060405180910390f35b34801561010b57600080fd5b506101146102d3565b6040518082815260200191505060405180910390f35b34801561013657600080fd5b5061013f6102d9565b604051808273ffffffffffffffffffffffffffffffffffffffff1673ffffffffffffffffffffffffffffffffffffffff16815260200191505060405180910390f35b34801561018d57600080fd5b506101966102ff565b005b3480156101a457600080fd5b506101ad610308565b6040518082815260200191505060405180910390f35b3480156101cf57600080fd5b506101d861030e565b604051808273ffffffffffffffffffffffffffffffffffffffff1673ffffffffffffffffffffffffffffffffffffffff16815260200191505060405180910390f35b34801561022657600080fd5b5061022f610333565b6040518082815260200191505060405180910390f35b34801561025157600080fd5b5061025a610339565b6040518082815260200191505060405180910390f35b34801561027c57600080fd5b5061028561033f565b604051808273ffffffffffffffffffffffffffffffffffffffff1673ffffffffffffffffffffffffffffffffffffffff16815260200191505060405180910390f35b60065481565b60085481565b60035481565b600160009054906101000a900473ffffffffffffffffffffffffffffffffffffffff1681565b42600881905550565b60055481565b6000809054906101000a900473ffffffffffffffffffffffffffffffffffffffff1681565b60075481565b60045481565b600260009054906101000a900473ffffffffffffffffffffffffffffffffffffffff16815600a165627a7a723058207fb2424b2a420147f07368143b3c9d9ee52826f2d9ef9e17020505b9a26f4621002960806040523480156200001157600080fd5b506040805190810160405280600981526020017f4c6f616e546f6b656e00000000000000000000000000000000000000000000008152506040805190810160405280600381526020017f4c54430000000000000000000000000000000000000000000000000000000000815250620000bb6301ffc9a77c010000000000000000000000000000000000000000000000000000000002620001e9640100000000026401000000009004565b620000f86380ac58cd7c010000000000000000000000000000000000000000000000000000000002620001e9640100000000026401000000009004565b62000135634f558e797c010000000000000000000000000000000000000000000000000000000002620001e9640100000000026401000000009004565b81600590805190602001906200014d929190620002a7565b50806006908051906020019062000166929190620002a7565b50620001a463780e9d637c010000000000000000000000000000000000000000000000000000000002620001e9640100000000026401000000009004565b620001e1635b5e139f7c010000000000000000000000000000000000000000000000000000000002620001e9640100000000026401000000009004565b505062000356565b63ffffffff7c010000000000000000000000000000000000000000000000000000000002817bffffffffffffffffffffffffffffffffffffffffffffffffffffffff1916141515156200023b57600080fd5b6001600080837bffffffffffffffffffffffffffffffffffffffffffffffffffffffff19167bffffffffffffffffffffffffffffffffffffffffffffffffffffffff1916815260200190815260200160002060006101000a81548160ff02191690831515021790555050565b828054600181600116156101000203166002900490600052602060002090601f016020900481019282601f10620002ea57805160ff19168380011785556200031b565b828001600101855582156200031b579182015b828111156200031a578251825591602001919060010190620002fd565b5b5090506200032a91906200032e565b5090565b6200035391905b808211156200034f57600081600090555060010162000335565b5090565b90565b611bc480620003666000396000f300608060405260043610610107576000357c0100000000000000000000000000000000000000000000000000000000900463ffffffff16806301ffc9a71461010c57806306fdde0314610170578063081812fc14610200578063095ea7b31461026d57806318160ddd146102ba57806319fa8f50146102e557806323b872dd1461034e5780632f745c59146103bb57806342842e0e1461041c5780634f558e79146104895780634f6ccce7146104ce5780636352211e1461050f57806370a082311461057c5780637e1c0c09146105d357806395d89b41146105fe578063a22cb4651461068e578063b88d4fde146106dd578063c87b56dd14610790578063e985e9c514610836575b600080fd5b34801561011857600080fd5b5061015660048036038101908080357bffffffffffffffffffffffffffffffffffffffffffffffffffffffff191690602001909291905050506108b1565b604051808215151515815260200191505060405180910390f35b34801561017c57600080fd5b50610185610918565b6040518080602001828103825283818151815260200191508051906020019080838360005b838110156101c55780820151818401526020810190506101aa565b50505050905090810190601f1680156101f25780820380516001836020036101000a031916815260200191505b509250505060405180910390f35b34801561020c57600080fd5b5061022b600480360381019080803590602001909291905050506109ba565b604051808273ffffffffffffffffffffffffffffffffffffffff1673ffffffffffffffffffffffffffffffffffffffff16815260200191505060405180910390f35b34801561027957600080fd5b506102b8600480360381019080803573ffffffffffffffffffffffffffffffffffffffff169060200190929190803590602001909291905050506109f7565b005b3480156102c657600080fd5b506102cf610b3c565b6040518082815260200191505060405180910390f35b3480156102f157600080fd5b506102fa610b49565b60405180827bffffffffffffffffffffffffffffffffffffffffffffffffffffffff19167bffffffffffffffffffffffffffffffffffffffffffffffffffffffff1916815260200191505060405180910390f35b34801561035a57600080fd5b506103b9600480360381019080803573ffffffffffffffffffffffffffffffffffffffff169060200190929190803573ffffffffffffffffffffffffffffffffffffffff16906020019092919080359060200190929190505050610b70565b005b3480156103c757600080fd5b50610406600480360381019080803573ffffffffffffffffffffffffffffffffffffffff16906020019092919080359060200190929190505050610c7b565b6040518082815260200191505060405180910390f35b34801561042857600080fd5b50610487600480360381019080803573ffffffffffffffffffffffffffffffffffffffff169060200190929190803573ffffffffffffffffffffffffffffffffffffffff16906020019092919080359060200190929190505050610cf2565b005b34801561049557600080fd5b506104b460048036038101908080359060200190929190505050610d13565b604051808215151515815260200191505060405180910390f35b3480156104da57600080fd5b506104f960048036038101908080359060200190929190505050610d85565b6040518082815260200191505060405180910390f35b34801561051b57600080fd5b5061053a60048036038101908080359060200190929190505050610dbd565b604051808273ffffffffffffffffffffffffffffffffffffffff1673ffffffffffffffffffffffffffffffffffffffff16815260200191505060405180910390f35b34801561058857600080fd5b506105bd600480360381019080803573ffffffffffffffffffffffffffffffffffffffff169060200190929190505050610e3b565b6040518082815260200191505060405180910390f35b3480156105df57600080fd5b506105e8610ebf565b6040518082815260200191505060405180910390f35b34801561060a57600080fd5b50610613610ec6565b6040518080602001828103825283818151815260200191508051906020019080838360005b83811015610653578082015181840152602081019050610638565b50505050905090810190601f1680156106805780820380516001836020036101000a031916815260200191505b509250505060405180910390f35b34801561069a57600080fd5b506106db600480360381019080803573ffffffffffffffffffffffffffffffffffffffff169060200190929190803515159060200190929190505050610f68565b005b3480156106e957600080fd5b5061078e600480360381019080803573ffffffffffffffffffffffffffffffffffffffff169060200190929190803573ffffffffffffffffffffffffffffffffffffffff16906020019092919080359060200190929190803590602001908201803590602001908080601f01602080910402602001604051908101604052809392919081815260200183838082843782019150505050505091929192905050506110a4565b005b34801561079c57600080fd5b506107bb600480360381019080803590602001909291905050506110cc565b6040518080602001828103825283818151815260200191508051906020019080838360005b838110156107fb5780820151818401526020810190506107e0565b50505050905090810190601f1680156108285780820380516001836020036101000a031916815260200191505b509250505060405180910390f35b34801561084257600080fd5b50610897600480360381019080803573ffffffffffffffffffffffffffffffffffffffff169060200190929190803573ffffffffffffffffffffffffffffffffffffffff169060200190929190505050611195565b604051808215151515815260200191505060405180910390f35b6000806000837bffffffffffffffffffffffffffffffffffffffffffffffffffffffff19167bffffffffffffffffffffffffffffffffffffffffffffffffffffffff1916815260200190815260200160002060009054906101000a900460ff169050919050565b606060058054600181600116156101000203166002900480601f0160208091040260200160405190810160405280929190818152602001828054600181600116156101000203166002900480156109b05780601f10610985576101008083540402835291602001916109b0565b820191906000526020600020905b81548152906001019060200180831161099357829003601f168201915b5050505050905090565b60006002600083815260200190815260200160002060009054906101000a900473ffffffffffffffffffffffffffffffffffffffff169050919050565b6000610a0282610dbd565b90508073ffffffffffffffffffffffffffffffffffffffff168373ffffffffffffffffffffffffffffffffffffffff1614151515610a3f57600080fd5b8073ffffffffffffffffffffffffffffffffffffffff163373ffffffffffffffffffffffffffffffffffffffff161480610a7f5750610a7e8133611195565b5b1515610a8a57600080fd5b826002600084815260200190815260200160002060006101000a81548173ffffffffffffffffffffffffffffffffffffffff021916908373ffffffffffffffffffffffffffffffffffffffff160217905550818373ffffffffffffffffffffffffffffffffffffffff168273ffffffffffffffffffffffffffffffffffffffff167f8c5be1e5ebec7d5bd14f71427d1e84f3dd0314c0f7b2291e5b200ac8c7c3b92560405160405180910390a4505050565b6000600980549050905090565b6301ffc9a77c01000000000000000000000000000000000000000000000000000000000281565b610b7a3382611229565b1515610b8557600080fd5b600073ffffffffffffffffffffffffffffffffffffffff168373ffffffffffffffffffffffffffffffffffffffff1614151515610bc157600080fd5b600073ffffffffffffffffffffffffffffffffffffffff168273ffffffffffffffffffffffffffffffffffffffff1614151515610bfd57600080fd5b610c0783826112be565b610c1183826113c1565b610c1b828261157d565b808273ffffffffffffffffffffffffffffffffffffffff168473ffffffffffffffffffffffffffffffffffffffff167fddf252ad1be2c89b69c2b068fc378daa952ba7f163c4a11628f55a4df523b3ef60405160405180910390a4505050565b6000610c8683610e3b565b82101515610c9357600080fd5b600760008473ffffffffffffffffffffffffffffffffffffffff1673ffffffffffffffffffffffffffffffffffffffff16815260200190815260200160002082815481101515610cdf57fe5b9060005260206000200154905092915050565b610d0e83838360206040519081016040528060008152506110a4565b505050565b6000806001600084815260200190815260200160002060009054906101000a900473ffffffffffffffffffffffffffffffffffffffff169050600073ffffffffffffffffffffffffffffffffffffffff168173ffffffffffffffffffffffffffffffffffffffff161415915050919050565b6000610d8f610b3c565b82101515610d9c57600080fd5b600982815481101515610dab57fe5b90600052602060002001549050919050565b6000806001600084815260200190815260200160002060009054906101000a900473ffffffffffffffffffffffffffffffffffffffff169050600073ffffffffffffffffffffffffffffffffffffffff168173ffffffffffffffffffffffffffffffffffffffff1614151515610e3257600080fd5b80915050919050565b60008073ffffffffffffffffffffffffffffffffffffffff168273ffffffffffffffffffffffffffffffffffffffff1614151515610e7857600080fd5b600360008373ffffffffffffffffffffffffffffffffffffffff1673ffffffffffffffffffffffffffffffffffffffff168152602001908152602001600020549050919050565b620186a081565b606060068054600181600116156101000203166002900480601f016020809104026020016040519081016040528092919081815260200182805460018160011615610100020316600290048015610f5e5780601f10610f3357610100808354040283529160200191610f5e565b820191906000526020600020905b815481529060010190602001808311610f4157829003601f168201915b5050505050905090565b3373ffffffffffffffffffffffffffffffffffffffff168273ffffffffffffffffffffffffffffffffffffffff1614151515610fa357600080fd5b80600460003373ffffffffffffffffffffffffffffffffffffffff1673ffffffffffffffffffffffffffffffffffffffff16815260200190815260200160002060008473ffffffffffffffffffffffffffffffffffffffff1673ffffffffffffffffffffffffffffffffffffffff16815260200190815260200160002060006101000a81548160ff0219169083151502179055508173ffffffffffffffffffffffffffffffffffffffff163373ffffffffffffffffffffffffffffffffffffffff167f17307eab39ab6107e8899845ad3d59bd9653f200f220920489ca2b5937696c3183604051808215151515815260200191505060405180910390a35050565b6110af848484610b70565b6110bb84848484611654565b15156110c657600080fd5b50505050565b60606110d782610d13565b15156110e257600080fd5b600b60008381526020019081526020016000208054600181600116156101000203166002900480601f0160208091040260200160405190810160405280929190818152602001828054600181600116156101000203166002900480156111895780601f1061115e57610100808354040283529160200191611189565b820191906000526020600020905b81548152906001019060200180831161116c57829003601f168201915b50505050509050919050565b6000600460008473ffffffffffffffffffffffffffffffffffffffff1673ffffffffffffffffffffffffffffffffffffffff16815260200190815260200160002060008373ffffffffffffffffffffffffffffffffffffffff1673ffffffffffffffffffffffffffffffffffffffff16815260200190815260200160002060009054906101000a900460ff16905092915050565b60008061123583610dbd565b90508073ffffffffffffffffffffffffffffffffffffffff168473ffffffffffffffffffffffffffffffffffffffff1614806112a457508373ffffffffffffffffffffffffffffffffffffffff1661128c846109ba565b73ffffffffffffffffffffffffffffffffffffffff16145b806112b557506112b48185611195565b5b91505092915050565b8173ffffffffffffffffffffffffffffffffffffffff166112de82610dbd565b73ffffffffffffffffffffffffffffffffffffffff1614151561130057600080fd5b600073ffffffffffffffffffffffffffffffffffffffff166002600083815260200190815260200160002060009054906101000a900473ffffffffffffffffffffffffffffffffffffffff1673ffffffffffffffffffffffffffffffffffffffff161415156113bd5760006002600083815260200190815260200160002060006101000a81548173ffffffffffffffffffffffffffffffffffffffff021916908373ffffffffffffffffffffffffffffffffffffffff1602179055505b5050565b60008060006113d08585611876565b6008600085815260200190815260200160002054925061143c6001600760008873ffffffffffffffffffffffffffffffffffffffff1673ffffffffffffffffffffffffffffffffffffffff168152602001908152602001600020805490506119a590919063ffffffff16565b9150600760008673ffffffffffffffffffffffffffffffffffffffff1673ffffffffffffffffffffffffffffffffffffffff1681526020019081526020016000208281548110151561148a57fe5b9060005260206000200154905080600760008773ffffffffffffffffffffffffffffffffffffffff1673ffffffffffffffffffffffffffffffffffffffff168152602001908152602001600020848154811015156114e457fe5b9060005260206000200181905550600760008673ffffffffffffffffffffffffffffffffffffffff1673ffffffffffffffffffffffffffffffffffffffff1681526020019081526020016000208054809190600190036115449190611b47565b50600060086000868152602001908152602001600020819055508260086000838152602001908152602001600020819055505050505050565b600061158983836119be565b600760008473ffffffffffffffffffffffffffffffffffffffff1673ffffffffffffffffffffffffffffffffffffffff168152602001908152602001600020805490509050600760008473ffffffffffffffffffffffffffffffffffffffff1673ffffffffffffffffffffffffffffffffffffffff168152602001908152602001600020829080600181540180825580915050906001820390600052602060002001600090919290919091505550806008600084815260200190815260200160002081905550505050565b6000806116768573ffffffffffffffffffffffffffffffffffffffff16611b18565b1515611685576001915061186d565b8473ffffffffffffffffffffffffffffffffffffffff1663150b7a02338887876040518563ffffffff167c0100000000000000000000000000000000000000000000000000000000028152600401808573ffffffffffffffffffffffffffffffffffffffff1673ffffffffffffffffffffffffffffffffffffffff1681526020018473ffffffffffffffffffffffffffffffffffffffff1673ffffffffffffffffffffffffffffffffffffffff16815260200183815260200180602001828103825283818151815260200191508051906020019080838360005b8381101561177a57808201518184015260208101905061175f565b50505050905090810190601f1680156117a75780820380516001836020036101000a031916815260200191505b5095505050505050602060405180830381600087803b1580156117c957600080fd5b505af11580156117dd573d6000803e3d6000fd5b505050506040513d60208110156117f357600080fd5b8101908080519060200190929190505050905063150b7a027c0100000000000000000000000000000000000000000000000000000000027bffffffffffffffffffffffffffffffffffffffffffffffffffffffff1916817bffffffffffffffffffffffffffffffffffffffffffffffffffffffff19161491505b50949350505050565b8173ffffffffffffffffffffffffffffffffffffffff1661189682610dbd565b73ffffffffffffffffffffffffffffffffffffffff161415156118b857600080fd5b61190b6001600360008573ffffffffffffffffffffffffffffffffffffffff1673ffffffffffffffffffffffffffffffffffffffff168152602001908152602001600020546119a590919063ffffffff16565b600360008473ffffffffffffffffffffffffffffffffffffffff1673ffffffffffffffffffffffffffffffffffffffff1681526020019081526020016000208190555060006001600083815260200190815260200160002060006101000a81548173ffffffffffffffffffffffffffffffffffffffff021916908373ffffffffffffffffffffffffffffffffffffffff1602179055505050565b60008282111515156119b357fe5b818303905092915050565b600073ffffffffffffffffffffffffffffffffffffffff166001600083815260200190815260200160002060009054906101000a900473ffffffffffffffffffffffffffffffffffffffff1673ffffffffffffffffffffffffffffffffffffffff16141515611a2c57600080fd5b816001600083815260200190815260200160002060006101000a81548173ffffffffffffffffffffffffffffffffffffffff021916908373ffffffffffffffffffffffffffffffffffffffff160217905550611ad16001600360008573ffffffffffffffffffffffffffffffffffffffff1673ffffffffffffffffffffffffffffffffffffffff16815260200190815260200160002054611b2b90919063ffffffff16565b600360008473ffffffffffffffffffffffffffffffffffffffff1673ffffffffffffffffffffffffffffffffffffffff168152602001908152602001600020819055505050565b600080823b905060008111915050919050565b60008183019050828110151515611b3e57fe5b80905092915050565b815481835581811115611b6e57818360005260206000209182019101611b6d9190611b73565b5b505050565b611b9591905b80821115611b91576000816000905550600101611b79565b5090565b905600a165627a7a72305820bc58fec46640c9d7fd13d2f3a083f0eafade6e77f9fd21f1c5f6a60ac4edd0650029a165627a7a723058204b8ec8b476ecf4ca104d7d8e03f88b98e19a993c5f3effe0be3c202c6ae28d740029",
  "source": "pragma solidity ^0.4.0;\r\n\r\nimport \"./LoanContract.sol\";\r\nimport \"./LoanToken.sol\";\r\nimport \"zeppelin-solidity/contracts/token/ERC20/StandardToken.sol\";\r\nimport \"./LiCoin.sol\";\r\n\r\ncontract LoanRequest {\r\n    address public company = 0x9Bd41Db18ed0Bd1AD0747eA709CE74522F44a4c1;\r\n    address public customer = msg.sender; //buyer-person\r\n    uint256 public tokenId;\r\n    uint256 public collateral; //customer give to company, change to contract later\r\n    uint256 public payOffAmount;//bro\r\n    uint256 public payBack;\r\n    uint256 public duration; //duration\r\n    uint256 public currentTime;\r\n\r\n    constructor (uint256 _collateral, uint256 _payOffAmount, uint256 _interestRate, uint256 _duration) public {\r\n        //company = _company;\r\n        collateral = _collateral;\r\n        payOffAmount = _payOffAmount;\r\n        payBack = _payOffAmount * (1 + _interestRate);\r\n        duration = _duration;\r\n    }\r\n\r\n    LoanContract public loan;\r\n\r\n\r\n    function lendEther() public payable {\r\n        //require(msg.value == loanAmount);\r\n        loan = new LoanContract(\r\n            company, //company\r\n            customer,\r\n            collateral,\r\n            payOffAmount,\r\n            payBack,\r\n            duration\r\n        );\r\n    }\r\n}\r\n",
  "sourcePath": "E:/myproject/contracts/LoanRequest.sol",
  "compiler": {
    "name": "solc",
    "version": "0.4.24+commit.e67f0147.Emscripten.clang"
  },
  "schemaVersion": "3.3.4",
  "updatedAt": "2021-05-12T22:50:47.440Z",
  "networkType": "ethereum",
  "devdoc": {
    "methods": {}
  },
  "userdoc": {
    "methods": {}
  }
}