{
  "contractName": "LoanToken",
  "abi": [
    {
      "inputs": [],
      "stateMutability": "nonpayable",
      "type": "constructor"
    },
    {
      "anonymous": false,
      "inputs": [
        {
          "indexed": true,
          "internalType": "address",
          "name": "owner",
          "type": "address"
        },
        {
          "indexed": true,
          "internalType": "address",
          "name": "approved",
          "type": "address"
        },
        {
          "indexed": true,
          "internalType": "uint256",
          "name": "tokenId",
          "type": "uint256"
        }
      ],
      "name": "Approval",
      "type": "event"
    },
    {
      "anonymous": false,
      "inputs": [
        {
          "indexed": true,
          "internalType": "address",
          "name": "owner",
          "type": "address"
        },
        {
          "indexed": true,
          "internalType": "address",
          "name": "operator",
          "type": "address"
        },
        {
          "indexed": false,
          "internalType": "bool",
          "name": "approved",
          "type": "bool"
        }
      ],
      "name": "ApprovalForAll",
      "type": "event"
    },
    {
      "anonymous": false,
      "inputs": [
        {
          "indexed": true,
          "internalType": "address",
          "name": "from",
          "type": "address"
        },
        {
          "indexed": true,
          "internalType": "address",
          "name": "to",
          "type": "address"
        },
        {
          "indexed": true,
          "internalType": "uint256",
          "name": "tokenId",
          "type": "uint256"
        }
      ],
      "name": "Transfer",
      "type": "event"
    },
    {
      "inputs": [
        {
          "internalType": "address",
          "name": "to",
          "type": "address"
        },
        {
          "internalType": "uint256",
          "name": "tokenId",
          "type": "uint256"
        }
      ],
      "name": "approve",
      "outputs": [],
      "stateMutability": "nonpayable",
      "type": "function"
    },
    {
      "inputs": [
        {
          "internalType": "address",
          "name": "owner",
          "type": "address"
        }
      ],
      "name": "balanceOf",
      "outputs": [
        {
          "internalType": "uint256",
          "name": "",
          "type": "uint256"
        }
      ],
      "stateMutability": "view",
      "type": "function"
    },
    {
      "inputs": [
        {
          "internalType": "uint256",
          "name": "tokenId",
          "type": "uint256"
        }
      ],
      "name": "getApproved",
      "outputs": [
        {
          "internalType": "address",
          "name": "",
          "type": "address"
        }
      ],
      "stateMutability": "view",
      "type": "function"
    },
    {
      "inputs": [
        {
          "internalType": "address",
          "name": "owner",
          "type": "address"
        },
        {
          "internalType": "address",
          "name": "operator",
          "type": "address"
        }
      ],
      "name": "isApprovedForAll",
      "outputs": [
        {
          "internalType": "bool",
          "name": "",
          "type": "bool"
        }
      ],
      "stateMutability": "view",
      "type": "function"
    },
    {
      "inputs": [],
      "name": "name",
      "outputs": [
        {
          "internalType": "string",
          "name": "",
          "type": "string"
        }
      ],
      "stateMutability": "view",
      "type": "function"
    },
    {
      "inputs": [
        {
          "internalType": "uint256",
          "name": "tokenId",
          "type": "uint256"
        }
      ],
      "name": "ownerOf",
      "outputs": [
        {
          "internalType": "address",
          "name": "",
          "type": "address"
        }
      ],
      "stateMutability": "view",
      "type": "function"
    },
    {
      "inputs": [
        {
          "internalType": "address",
          "name": "from",
          "type": "address"
        },
        {
          "internalType": "address",
          "name": "to",
          "type": "address"
        },
        {
          "internalType": "uint256",
          "name": "tokenId",
          "type": "uint256"
        }
      ],
      "name": "safeTransferFrom",
      "outputs": [],
      "stateMutability": "nonpayable",
      "type": "function"
    },
    {
      "inputs": [
        {
          "internalType": "address",
          "name": "from",
          "type": "address"
        },
        {
          "internalType": "address",
          "name": "to",
          "type": "address"
        },
        {
          "internalType": "uint256",
          "name": "tokenId",
          "type": "uint256"
        },
        {
          "internalType": "bytes",
          "name": "_data",
          "type": "bytes"
        }
      ],
      "name": "safeTransferFrom",
      "outputs": [],
      "stateMutability": "nonpayable",
      "type": "function"
    },
    {
      "inputs": [
        {
          "internalType": "address",
          "name": "operator",
          "type": "address"
        },
        {
          "internalType": "bool",
          "name": "approved",
          "type": "bool"
        }
      ],
      "name": "setApprovalForAll",
      "outputs": [],
      "stateMutability": "nonpayable",
      "type": "function"
    },
    {
      "inputs": [
        {
          "internalType": "bytes4",
          "name": "interfaceId",
          "type": "bytes4"
        }
      ],
      "name": "supportsInterface",
      "outputs": [
        {
          "internalType": "bool",
          "name": "",
          "type": "bool"
        }
      ],
      "stateMutability": "view",
      "type": "function"
    },
    {
      "inputs": [],
      "name": "symbol",
      "outputs": [
        {
          "internalType": "string",
          "name": "",
          "type": "string"
        }
      ],
      "stateMutability": "view",
      "type": "function"
    },
    {
      "inputs": [
        {
          "internalType": "uint256",
          "name": "tokenId",
          "type": "uint256"
        }
      ],
      "name": "tokenURI",
      "outputs": [
        {
          "internalType": "string",
          "name": "",
          "type": "string"
        }
      ],
      "stateMutability": "view",
      "type": "function"
    },
    {
      "inputs": [
        {
          "internalType": "address",
          "name": "from",
          "type": "address"
        },
        {
          "internalType": "address",
          "name": "to",
          "type": "address"
        },
        {
          "internalType": "uint256",
          "name": "tokenId",
          "type": "uint256"
        }
      ],
      "name": "transferFrom",
      "outputs": [],
      "stateMutability": "nonpayable",
      "type": "function"
    },
    {
      "inputs": [
        {
          "internalType": "address",
          "name": "player",
          "type": "address"
        },
        {
          "internalType": "uint256",
          "name": "startTime",
          "type": "uint256"
        }
      ],
      "name": "awardItem",
      "outputs": [
        {
          "internalType": "uint256",
          "name": "",
          "type": "uint256"
        }
      ],
      "stateMutability": "nonpayable",
      "type": "function"
    },
    {
      "inputs": [],
      "name": "getItemId",
      "outputs": [
        {
          "internalType": "uint256",
          "name": "",
          "type": "uint256"
        }
      ],
      "stateMutability": "view",
      "type": "function"
    },
    {
      "inputs": [],
      "name": "returnNum",
      "outputs": [
        {
          "internalType": "uint256",
          "name": "",
          "type": "uint256"
        }
      ],
      "stateMutability": "view",
      "type": "function"
    },
    {
      "inputs": [
        {
          "internalType": "address payable",
          "name": "receiver",
          "type": "address"
        }
      ],
      "name": "transferETH",
      "outputs": [
        {
          "internalType": "uint256",
          "name": "",
          "type": "uint256"
        }
      ],
      "stateMutability": "payable",
      "type": "function"
    },
    {
      "inputs": [
        {
          "internalType": "address",
          "name": "sender",
          "type": "address"
        },
        {
          "internalType": "address",
          "name": "receiver",
          "type": "address"
        },
        {
          "internalType": "uint256",
          "name": "id",
          "type": "uint256"
        }
      ],
      "name": "transferItem",
      "outputs": [
        {
          "internalType": "address",
          "name": "",
          "type": "address"
        }
      ],
      "stateMutability": "nonpayable",
      "type": "function"
    }
  ],
  "bytecode": "0x60806040523480156200001157600080fd5b506040518060400160405280600981526020017f4c6f616e546f6b656e00000000000000000000000000000000000000000000008152506040518060400160405280600381526020017f4c54430000000000000000000000000000000000000000000000000000000000815250816000908051906020019062000096929190620000b8565b508060019080519060200190620000af929190620000b8565b505050620001cd565b828054620000c69062000168565b90600052602060002090601f016020900481019282620000ea576000855562000136565b82601f106200010557805160ff191683800117855562000136565b8280016001018555821562000136579182015b828111156200013557825182559160200191906001019062000118565b5b50905062000145919062000149565b5090565b5b80821115620001645760008160009055506001016200014a565b5090565b600060028204905060018216806200018157607f821691505b602082108114156200019857620001976200019e565b5b50919050565b7f4e487b7100000000000000000000000000000000000000000000000000000000600052602260045260246000fd5b6128a580620001dd6000396000f3fe6080604052600436106101095760003560e01c80636352211e11610095578063a22cb46511610064578063a22cb465146103a3578063b88d4fde146103cc578063c87b56dd146103f5578063d50f6bf014610432578063e985e9c51461046257610109565b80636352211e146102d35780636ee77baa1461031057806370a082311461033b57806395d89b411461037857610109565b8063144c9d4c116100dc578063144c9d4c146101dc57806323b872dd1461021957806342842e0e14610242578063445f76d71461026b5780636295c61a1461029657610109565b806301ffc9a71461010e57806306fdde031461014b578063081812fc14610176578063095ea7b3146101b3575b600080fd5b34801561011a57600080fd5b5061013560048036038101906101309190611b4c565b61049f565b6040516101429190612244565b60405180910390f35b34801561015757600080fd5b50610160610581565b60405161016d919061225f565b60405180910390f35b34801561018257600080fd5b5061019d60048036038101906101989190611b9e565b610613565b6040516101aa91906121dd565b60405180910390f35b3480156101bf57600080fd5b506101da60048036038101906101d59190611b10565b610698565b005b3480156101e857600080fd5b5061020360048036038101906101fe9190611b10565b6107b0565b6040516102109190612441565b60405180910390f35b34801561022557600080fd5b50610240600480360381019061023b9190611a0a565b6107ef565b005b34801561024e57600080fd5b5061026960048036038101906102649190611a0a565b61084f565b005b34801561027757600080fd5b5061028061086f565b60405161028d9190612441565b60405180910390f35b3480156102a257600080fd5b506102bd60048036038101906102b89190611a0a565b610879565b6040516102ca91906121dd565b60405180910390f35b3480156102df57600080fd5b506102fa60048036038101906102f59190611b9e565b610890565b60405161030791906121dd565b60405180910390f35b34801561031c57600080fd5b50610325610942565b6040516103329190612441565b60405180910390f35b34801561034757600080fd5b50610362600480360381019061035d919061197c565b61094b565b60405161036f9190612441565b60405180910390f35b34801561038457600080fd5b5061038d610a03565b60405161039a919061225f565b60405180910390f35b3480156103af57600080fd5b506103ca60048036038101906103c59190611ad4565b610a95565b005b3480156103d857600080fd5b506103f360048036038101906103ee9190611a59565b610c16565b005b34801561040157600080fd5b5061041c60048036038101906104179190611b9e565b610c78565b604051610429919061225f565b60405180910390f35b61044c600480360381019061044791906119a5565b610d1f565b6040516104599190612441565b60405180910390f35b34801561046e57600080fd5b50610489600480360381019061048491906119ce565b610d70565b6040516104969190612244565b60405180910390f35b60007f80ac58cd000000000000000000000000000000000000000000000000000000007bffffffffffffffffffffffffffffffffffffffffffffffffffffffff1916827bffffffffffffffffffffffffffffffffffffffffffffffffffffffff1916148061056a57507f5b5e139f000000000000000000000000000000000000000000000000000000007bffffffffffffffffffffffffffffffffffffffffffffffffffffffff1916827bffffffffffffffffffffffffffffffffffffffffffffffffffffffff1916145b8061057a575061057982610e04565b5b9050919050565b60606000805461059090612683565b80601f01602080910402602001604051908101604052809291908181526020018280546105bc90612683565b80156106095780601f106105de57610100808354040283529160200191610609565b820191906000526020600020905b8154815290600101906020018083116105ec57829003601f168201915b5050505050905090565b600061061e82610e6e565b61065d576040517f08c379a0000000000000000000000000000000000000000000000000000000008152600401610654906123a1565b60405180910390fd5b6004600083815260200190815260200160002060009054906101000a900473ffffffffffffffffffffffffffffffffffffffff169050919050565b60006106a382610890565b90508073ffffffffffffffffffffffffffffffffffffffff168373ffffffffffffffffffffffffffffffffffffffff161415610714576040517f08c379a000000000000000000000000000000000000000000000000000000000815260040161070b90612401565b60405180910390fd5b8073ffffffffffffffffffffffffffffffffffffffff16610733610eda565b73ffffffffffffffffffffffffffffffffffffffff16148061076257506107618161075c610eda565b610d70565b5b6107a1576040517f08c379a000000000000000000000000000000000000000000000000000000000815260040161079890612321565b60405180910390fd5b6107ab8383610ee2565b505050565b60008142116107be57600080fd5b6107c86006610f9b565b6107d26006610fb1565b6009819055506107e483600954610fbf565b600954905092915050565b6108006107fa610eda565b8261118d565b61083f576040517f08c379a000000000000000000000000000000000000000000000000000000000815260040161083690612421565b60405180910390fd5b61084a83838361126b565b505050565b61086a83838360405180602001604052806000815250610c16565b505050565b6000600954905090565b60006108868484846107ef565b8290509392505050565b6000806002600084815260200190815260200160002060009054906101000a900473ffffffffffffffffffffffffffffffffffffffff169050600073ffffffffffffffffffffffffffffffffffffffff168173ffffffffffffffffffffffffffffffffffffffff161415610939576040517f08c379a000000000000000000000000000000000000000000000000000000000815260040161093090612361565b60405180910390fd5b80915050919050565b60006005905090565b60008073ffffffffffffffffffffffffffffffffffffffff168273ffffffffffffffffffffffffffffffffffffffff1614156109bc576040517f08c379a00000000000000000000000000000000000000000000000000000000081526004016109b390612341565b60405180910390fd5b600360008373ffffffffffffffffffffffffffffffffffffffff1673ffffffffffffffffffffffffffffffffffffffff168152602001908152602001600020549050919050565b606060018054610a1290612683565b80601f0160208091040260200160405190810160405280929190818152602001828054610a3e90612683565b8015610a8b5780601f10610a6057610100808354040283529160200191610a8b565b820191906000526020600020905b815481529060010190602001808311610a6e57829003601f168201915b5050505050905090565b610a9d610eda565b73ffffffffffffffffffffffffffffffffffffffff168273ffffffffffffffffffffffffffffffffffffffff161415610b0b576040517f08c379a0000000000000000000000000000000000000000000000000000000008152600401610b02906122e1565b60405180910390fd5b8060056000610b18610eda565b73ffffffffffffffffffffffffffffffffffffffff1673ffffffffffffffffffffffffffffffffffffffff16815260200190815260200160002060008473ffffffffffffffffffffffffffffffffffffffff1673ffffffffffffffffffffffffffffffffffffffff16815260200190815260200160002060006101000a81548160ff0219169083151502179055508173ffffffffffffffffffffffffffffffffffffffff16610bc5610eda565b73ffffffffffffffffffffffffffffffffffffffff167f17307eab39ab6107e8899845ad3d59bd9653f200f220920489ca2b5937696c3183604051610c0a9190612244565b60405180910390a35050565b610c27610c21610eda565b8361118d565b610c66576040517f08c379a0000000000000000000000000000000000000000000000000000000008152600401610c5d90612421565b60405180910390fd5b610c72848484846114c7565b50505050565b6060610c8382610e6e565b610cc2576040517f08c379a0000000000000000000000000000000000000000000000000000000008152600401610cb9906123e1565b60405180910390fd5b6000610ccc611523565b90506000815111610cec5760405180602001604052806000815250610d17565b80610cf68461153a565b604051602001610d079291906121b9565b6040516020818303038152906040525b915050919050565b60008173ffffffffffffffffffffffffffffffffffffffff166108fc349081150290604051600060405180830381858888f19350505050158015610d67573d6000803e3d6000fd5b50349050919050565b6000600560008473ffffffffffffffffffffffffffffffffffffffff1673ffffffffffffffffffffffffffffffffffffffff16815260200190815260200160002060008373ffffffffffffffffffffffffffffffffffffffff1673ffffffffffffffffffffffffffffffffffffffff16815260200190815260200160002060009054906101000a900460ff16905092915050565b60007f01ffc9a7000000000000000000000000000000000000000000000000000000007bffffffffffffffffffffffffffffffffffffffffffffffffffffffff1916827bffffffffffffffffffffffffffffffffffffffffffffffffffffffff1916149050919050565b60008073ffffffffffffffffffffffffffffffffffffffff166002600084815260200190815260200160002060009054906101000a900473ffffffffffffffffffffffffffffffffffffffff1673ffffffffffffffffffffffffffffffffffffffff1614159050919050565b600033905090565b816004600083815260200190815260200160002060006101000a81548173ffffffffffffffffffffffffffffffffffffffff021916908373ffffffffffffffffffffffffffffffffffffffff160217905550808273ffffffffffffffffffffffffffffffffffffffff16610f5583610890565b73ffffffffffffffffffffffffffffffffffffffff167f8c5be1e5ebec7d5bd14f71427d1e84f3dd0314c0f7b2291e5b200ac8c7c3b92560405160405180910390a45050565b6001816000016000828254019250508190555050565b600081600001549050919050565b600073ffffffffffffffffffffffffffffffffffffffff168273ffffffffffffffffffffffffffffffffffffffff16141561102f576040517f08c379a000000000000000000000000000000000000000000000000000000000815260040161102690612381565b60405180910390fd5b61103881610e6e565b15611078576040517f08c379a000000000000000000000000000000000000000000000000000000000815260040161106f906122a1565b60405180910390fd5b611084600083836116e7565b6001600360008473ffffffffffffffffffffffffffffffffffffffff1673ffffffffffffffffffffffffffffffffffffffff16815260200190815260200160002060008282546110d49190612500565b92505081905550816002600083815260200190815260200160002060006101000a81548173ffffffffffffffffffffffffffffffffffffffff021916908373ffffffffffffffffffffffffffffffffffffffff160217905550808273ffffffffffffffffffffffffffffffffffffffff16600073ffffffffffffffffffffffffffffffffffffffff167fddf252ad1be2c89b69c2b068fc378daa952ba7f163c4a11628f55a4df523b3ef60405160405180910390a45050565b600061119882610e6e565b6111d7576040517f08c379a00000000000000000000000000000000000000000000000000000000081526004016111ce90612301565b60405180910390fd5b60006111e283610890565b90508073ffffffffffffffffffffffffffffffffffffffff168473ffffffffffffffffffffffffffffffffffffffff16148061125157508373ffffffffffffffffffffffffffffffffffffffff1661123984610613565b73ffffffffffffffffffffffffffffffffffffffff16145b8061126257506112618185610d70565b5b91505092915050565b8273ffffffffffffffffffffffffffffffffffffffff1661128b82610890565b73ffffffffffffffffffffffffffffffffffffffff16146112e1576040517f08c379a00000000000000000000000000000000000000000000000000000000081526004016112d8906123c1565b60405180910390fd5b600073ffffffffffffffffffffffffffffffffffffffff168273ffffffffffffffffffffffffffffffffffffffff161415611351576040517f08c379a0000000000000000000000000000000000000000000000000000000008152600401611348906122c1565b60405180910390fd5b61135c8383836116e7565b611367600082610ee2565b6001600360008573ffffffffffffffffffffffffffffffffffffffff1673ffffffffffffffffffffffffffffffffffffffff16815260200190815260200160002060008282546113b79190612587565b925050819055506001600360008473ffffffffffffffffffffffffffffffffffffffff1673ffffffffffffffffffffffffffffffffffffffff168152602001908152602001600020600082825461140e9190612500565b92505081905550816002600083815260200190815260200160002060006101000a81548173ffffffffffffffffffffffffffffffffffffffff021916908373ffffffffffffffffffffffffffffffffffffffff160217905550808273ffffffffffffffffffffffffffffffffffffffff168473ffffffffffffffffffffffffffffffffffffffff167fddf252ad1be2c89b69c2b068fc378daa952ba7f163c4a11628f55a4df523b3ef60405160405180910390a4505050565b6114d284848461126b565b6114de848484846116ec565b61151d576040517f08c379a000000000000000000000000000000000000000000000000000000000815260040161151490612281565b60405180910390fd5b50505050565b606060405180602001604052806000815250905090565b60606000821415611582576040518060400160405280600181526020017f300000000000000000000000000000000000000000000000000000000000000081525090506116e2565b600082905060005b600082146115b457808061159d906126b5565b915050600a826115ad9190612556565b915061158a565b60008167ffffffffffffffff8111156115f6577f4e487b7100000000000000000000000000000000000000000000000000000000600052604160045260246000fd5b6040519080825280601f01601f1916602001820160405280156116285781602001600182028036833780820191505090505b5090505b600085146116db576001826116419190612587565b9150600a8561165091906126fe565b603061165c9190612500565b60f81b818381518110611698577f4e487b7100000000000000000000000000000000000000000000000000000000600052603260045260246000fd5b60200101907effffffffffffffffffffffffffffffffffffffffffffffffffffffffffffff1916908160001a905350600a856116d49190612556565b945061162c565b8093505050505b919050565b505050565b600061170d8473ffffffffffffffffffffffffffffffffffffffff16611883565b15611876578373ffffffffffffffffffffffffffffffffffffffff1663150b7a02611736610eda565b8786866040518563ffffffff1660e01b815260040161175894939291906121f8565b602060405180830381600087803b15801561177257600080fd5b505af19250505080156117a357506040513d601f19601f820116820180604052508101906117a09190611b75565b60015b611826573d80600081146117d3576040519150601f19603f3d011682016040523d82523d6000602084013e6117d8565b606091505b5060008151141561181e576040517f08c379a000000000000000000000000000000000000000000000000000000000815260040161181590612281565b60405180910390fd5b805181602001fd5b63150b7a0260e01b7bffffffffffffffffffffffffffffffffffffffffffffffffffffffff1916817bffffffffffffffffffffffffffffffffffffffffffffffffffffffff19161491505061187b565b600190505b949350505050565b600080823b905060008111915050919050565b60006118a96118a48461248d565b61245c565b9050828152602081018484840111156118c157600080fd5b6118cc848285612641565b509392505050565b6000813590506118e3816127fc565b92915050565b6000813590506118f881612813565b92915050565b60008135905061190d8161282a565b92915050565b60008135905061192281612841565b92915050565b60008151905061193781612841565b92915050565b600082601f83011261194e57600080fd5b813561195e848260208601611896565b91505092915050565b60008135905061197681612858565b92915050565b60006020828403121561198e57600080fd5b600061199c848285016118d4565b91505092915050565b6000602082840312156119b757600080fd5b60006119c5848285016118e9565b91505092915050565b600080604083850312156119e157600080fd5b60006119ef858286016118d4565b9250506020611a00858286016118d4565b9150509250929050565b600080600060608486031215611a1f57600080fd5b6000611a2d868287016118d4565b9350506020611a3e868287016118d4565b9250506040611a4f86828701611967565b9150509250925092565b60008060008060808587031215611a6f57600080fd5b6000611a7d878288016118d4565b9450506020611a8e878288016118d4565b9350506040611a9f87828801611967565b925050606085013567ffffffffffffffff811115611abc57600080fd5b611ac88782880161193d565b91505092959194509250565b60008060408385031215611ae757600080fd5b6000611af5858286016118d4565b9250506020611b06858286016118fe565b9150509250929050565b60008060408385031215611b2357600080fd5b6000611b31858286016118d4565b9250506020611b4285828601611967565b9150509250929050565b600060208284031215611b5e57600080fd5b6000611b6c84828501611913565b91505092915050565b600060208284031215611b8757600080fd5b6000611b9584828501611928565b91505092915050565b600060208284031215611bb057600080fd5b6000611bbe84828501611967565b91505092915050565b611bd0816125bb565b82525050565b611bdf816125df565b82525050565b6000611bf0826124bd565b611bfa81856124d3565b9350611c0a818560208601612650565b611c13816127eb565b840191505092915050565b6000611c29826124c8565b611c3381856124e4565b9350611c43818560208601612650565b611c4c816127eb565b840191505092915050565b6000611c62826124c8565b611c6c81856124f5565b9350611c7c818560208601612650565b80840191505092915050565b6000611c956032836124e4565b91507f4552433732313a207472616e7366657220746f206e6f6e20455243373231526560008301527f63656976657220696d706c656d656e74657200000000000000000000000000006020830152604082019050919050565b6000611cfb601c836124e4565b91507f4552433732313a20746f6b656e20616c7265616479206d696e746564000000006000830152602082019050919050565b6000611d3b6024836124e4565b91507f4552433732313a207472616e7366657220746f20746865207a65726f2061646460008301527f72657373000000000000000000000000000000000000000000000000000000006020830152604082019050919050565b6000611da16019836124e4565b91507f4552433732313a20617070726f766520746f2063616c6c6572000000000000006000830152602082019050919050565b6000611de1602c836124e4565b91507f4552433732313a206f70657261746f7220717565727920666f72206e6f6e657860008301527f697374656e7420746f6b656e00000000000000000000000000000000000000006020830152604082019050919050565b6000611e476038836124e4565b91507f4552433732313a20617070726f76652063616c6c6572206973206e6f74206f7760008301527f6e6572206e6f7220617070726f76656420666f7220616c6c00000000000000006020830152604082019050919050565b6000611ead602a836124e4565b91507f4552433732313a2062616c616e636520717565727920666f7220746865207a6560008301527f726f2061646472657373000000000000000000000000000000000000000000006020830152604082019050919050565b6000611f136029836124e4565b91507f4552433732313a206f776e657220717565727920666f72206e6f6e657869737460008301527f656e7420746f6b656e00000000000000000000000000000000000000000000006020830152604082019050919050565b6000611f796020836124e4565b91507f4552433732313a206d696e7420746f20746865207a65726f20616464726573736000830152602082019050919050565b6000611fb9602c836124e4565b91507f4552433732313a20617070726f76656420717565727920666f72206e6f6e657860008301527f697374656e7420746f6b656e00000000000000000000000000000000000000006020830152604082019050919050565b600061201f6029836124e4565b91507f4552433732313a207472616e73666572206f6620746f6b656e2074686174206960008301527f73206e6f74206f776e00000000000000000000000000000000000000000000006020830152604082019050919050565b6000612085602f836124e4565b91507f4552433732314d657461646174613a2055524920717565727920666f72206e6f60008301527f6e6578697374656e7420746f6b656e00000000000000000000000000000000006020830152604082019050919050565b60006120eb6021836124e4565b91507f4552433732313a20617070726f76616c20746f2063757272656e74206f776e6560008301527f72000000000000000000000000000000000000000000000000000000000000006020830152604082019050919050565b60006121516031836124e4565b91507f4552433732313a207472616e736665722063616c6c6572206973206e6f74206f60008301527f776e6572206e6f7220617070726f7665640000000000000000000000000000006020830152604082019050919050565b6121b381612637565b82525050565b60006121c58285611c57565b91506121d18284611c57565b91508190509392505050565b60006020820190506121f26000830184611bc7565b92915050565b600060808201905061220d6000830187611bc7565b61221a6020830186611bc7565b61222760408301856121aa565b81810360608301526122398184611be5565b905095945050505050565b60006020820190506122596000830184611bd6565b92915050565b600060208201905081810360008301526122798184611c1e565b905092915050565b6000602082019050818103600083015261229a81611c88565b9050919050565b600060208201905081810360008301526122ba81611cee565b9050919050565b600060208201905081810360008301526122da81611d2e565b9050919050565b600060208201905081810360008301526122fa81611d94565b9050919050565b6000602082019050818103600083015261231a81611dd4565b9050919050565b6000602082019050818103600083015261233a81611e3a565b9050919050565b6000602082019050818103600083015261235a81611ea0565b9050919050565b6000602082019050818103600083015261237a81611f06565b9050919050565b6000602082019050818103600083015261239a81611f6c565b9050919050565b600060208201905081810360008301526123ba81611fac565b9050919050565b600060208201905081810360008301526123da81612012565b9050919050565b600060208201905081810360008301526123fa81612078565b9050919050565b6000602082019050818103600083015261241a816120de565b9050919050565b6000602082019050818103600083015261243a81612144565b9050919050565b600060208201905061245660008301846121aa565b92915050565b6000604051905081810181811067ffffffffffffffff82111715612483576124826127bc565b5b8060405250919050565b600067ffffffffffffffff8211156124a8576124a76127bc565b5b601f19601f8301169050602081019050919050565b600081519050919050565b600081519050919050565b600082825260208201905092915050565b600082825260208201905092915050565b600081905092915050565b600061250b82612637565b915061251683612637565b9250827fffffffffffffffffffffffffffffffffffffffffffffffffffffffffffffffff0382111561254b5761254a61272f565b5b828201905092915050565b600061256182612637565b915061256c83612637565b92508261257c5761257b61275e565b5b828204905092915050565b600061259282612637565b915061259d83612637565b9250828210156125b0576125af61272f565b5b828203905092915050565b60006125c682612617565b9050919050565b60006125d882612617565b9050919050565b60008115159050919050565b60007fffffffff0000000000000000000000000000000000000000000000000000000082169050919050565b600073ffffffffffffffffffffffffffffffffffffffff82169050919050565b6000819050919050565b82818337600083830152505050565b60005b8381101561266e578082015181840152602081019050612653565b8381111561267d576000848401525b50505050565b6000600282049050600182168061269b57607f821691505b602082108114156126af576126ae61278d565b5b50919050565b60006126c082612637565b91507fffffffffffffffffffffffffffffffffffffffffffffffffffffffffffffffff8214156126f3576126f261272f565b5b600182019050919050565b600061270982612637565b915061271483612637565b9250826127245761272361275e565b5b828206905092915050565b7f4e487b7100000000000000000000000000000000000000000000000000000000600052601160045260246000fd5b7f4e487b7100000000000000000000000000000000000000000000000000000000600052601260045260246000fd5b7f4e487b7100000000000000000000000000000000000000000000000000000000600052602260045260246000fd5b7f4e487b7100000000000000000000000000000000000000000000000000000000600052604160045260246000fd5b6000601f19601f8301169050919050565b612805816125bb565b811461281057600080fd5b50565b61281c816125cd565b811461282757600080fd5b50565b612833816125df565b811461283e57600080fd5b50565b61284a816125eb565b811461285557600080fd5b50565b61286181612637565b811461286c57600080fd5b5056fea2646970667358221220bb4716c058aa538d3051fa357366d9dadda2a71bf87d00a7c6868b63a96f2dab64736f6c63430008000033",
  "immutableReferences": {},
  "source": "pragma solidity ^0.8.0;\r\n\r\n//import \"zeppelin-solidity/contracts/token/ERC721/ERC721Token.sol\";\r\n\r\nimport \"openzeppelin-solidity/contracts/token/ERC721/ERC721.sol\";\r\nimport \"openzeppelin-solidity/contracts/utils/Counters.sol\";\r\nimport \"openzeppelin-solidity/contracts/token/ERC721/IERC721Receiver.sol\";\r\n\r\ncontract LoanToken is ERC721 {\r\n    //    constructor () ERC721Token (\" LoanToken \",\" LTC \") public {\r\n    //    }\r\n    //\r\n    //    function mint ( address _company , uint256 _tokenId )\r\n    //    public {\r\n    //        super . _mint ( _company , _tokenId );\r\n    //    }\r\n    using Counters for Counters.Counter;\r\n    Counters.Counter private _tokenIds;\r\n    string BName;\r\n    string BSymbol;\r\n    uint256 newItemId;\r\n\r\n    constructor() public ERC721(\"LoanToken\", \"LTC\") {}\r\n\r\n    function awardItem(address player, uint256 startTime) public returns (uint256){\r\n        require(block.timestamp > startTime);\r\n        _tokenIds.increment();\r\n\r\n        newItemId = _tokenIds.current();\r\n        _mint(player, newItemId);\r\n        //_setTokenURI(newItemId, tokenURI);\r\n        return newItemId;\r\n    }\r\n\r\n    function getItemId() public view returns(uint256){\r\n        return newItemId;\r\n    }\r\n\r\n    function returnNum() public view returns(uint256){\r\n        return 5;\r\n    }\r\n\r\n    function transferETH(address payable receiver) public payable returns(uint256){\r\n        receiver.transfer(msg.value);\r\n        return msg.value;\r\n    }\r\n\r\n    function transferItem(address sender, address receiver, uint256 id) public returns (address){\r\n            //isApprovedForAll(receiver, true);\r\n            transferFrom(sender, receiver, id);\r\n        return receiver;\r\n    }\r\n}\r\n\r\n//contract LoanContract is IERC721Receiver {\r\n////    LoanToken token;\r\n////\r\n////    constructor() public{\r\n////        LoanToken newToken = new LoanToken();\r\n////    }\r\n//    function onERC721Received(address, address, uint256, bytes memory) public virtual override returns (bytes4) {\r\n//        return this.onERC721Received.selector;\r\n//    }\r\n//\r\n//    function getIssuer() public returns (address){\r\n//        return msg.sender;\r\n//    }\r\n//\r\n//    function createToken(LoanToken token, address sender) public{\r\n//        token.awardItem(sender);\r\n//    }\r\n//\r\n//    function transferToken(LoanToken token, address sender, address receiver, uint256 id) public{\r\n//        token.transferItem(sender, receiver, id);\r\n//    }\r\n//}\r\n",
  "sourcePath": "E:/myproject/contracts/LoanToken.sol",
  "compiler": {
    "name": "solc",
    "version": "0.8.0+commit.c7dfd78e.Emscripten.clang"
  },
  "schemaVersion": "3.4.1",
  "updatedAt": "2021-07-28T18:12:50.741Z",
  "devdoc": {
    "kind": "dev",
    "methods": {
      "approve(address,uint256)": {
        "details": "See {IERC721-approve}."
      },
      "balanceOf(address)": {
        "details": "See {IERC721-balanceOf}."
      },
      "getApproved(uint256)": {
        "details": "See {IERC721-getApproved}."
      },
      "isApprovedForAll(address,address)": {
        "details": "See {IERC721-isApprovedForAll}."
      },
      "name()": {
        "details": "See {IERC721Metadata-name}."
      },
      "ownerOf(uint256)": {
        "details": "See {IERC721-ownerOf}."
      },
      "safeTransferFrom(address,address,uint256)": {
        "details": "See {IERC721-safeTransferFrom}."
      },
      "safeTransferFrom(address,address,uint256,bytes)": {
        "details": "See {IERC721-safeTransferFrom}."
      },
      "setApprovalForAll(address,bool)": {
        "details": "See {IERC721-setApprovalForAll}."
      },
      "supportsInterface(bytes4)": {
        "details": "See {IERC165-supportsInterface}."
      },
      "symbol()": {
        "details": "See {IERC721Metadata-symbol}."
      },
      "tokenURI(uint256)": {
        "details": "See {IERC721Metadata-tokenURI}."
      },
      "transferFrom(address,address,uint256)": {
        "details": "See {IERC721-transferFrom}."
      }
    },
    "version": 1
  },
  "userdoc": {
    "kind": "user",
    "methods": {},
    "version": 1
  }
}