{
  "contractName": "LoanContract",
  "abi": [
    {
      "inputs": [
        {
          "internalType": "address",
          "name": "",
          "type": "address"
        },
        {
          "internalType": "address",
          "name": "",
          "type": "address"
        },
        {
          "internalType": "uint256",
          "name": "",
          "type": "uint256"
        },
        {
          "internalType": "bytes",
          "name": "",
          "type": "bytes"
        }
      ],
      "name": "onERC721Received",
      "outputs": [
        {
          "internalType": "bytes4",
          "name": "",
          "type": "bytes4"
        }
      ],
      "stateMutability": "nonpayable",
      "type": "function"
    },
    {
      "inputs": [],
      "name": "getIssuer",
      "outputs": [
        {
          "internalType": "address",
          "name": "",
          "type": "address"
        }
      ],
      "stateMutability": "nonpayable",
      "type": "function"
    },
    {
      "inputs": [
        {
          "internalType": "contract LoanToken",
          "name": "token",
          "type": "address"
        },
        {
          "internalType": "address",
          "name": "sender",
          "type": "address"
        }
      ],
      "name": "createToken",
      "outputs": [],
      "stateMutability": "nonpayable",
      "type": "function"
    },
    {
      "inputs": [
        {
          "internalType": "contract LoanToken",
          "name": "token",
          "type": "address"
        },
        {
          "internalType": "address",
          "name": "sender",
          "type": "address"
        },
        {
          "internalType": "address",
          "name": "receiver",
          "type": "address"
        },
        {
          "internalType": "uint256",
          "name": "id",
          "type": "uint256"
        }
      ],
      "name": "transferToken",
      "outputs": [],
      "stateMutability": "nonpayable",
      "type": "function"
    }
  ],
  "bytecode": "0x608060405234801561001057600080fd5b50610684806100206000396000f3fe608060405234801561001057600080fd5b506004361061004c5760003560e01c8063150b7a02146100515780632c54de4f14610081578063525564211461009d5780636ed776b2146100bb575b600080fd5b61006b60048036038101906100669190610313565b6100d7565b60405161007891906104d5565b60405180910390f35b61009b600480360381019061009691906103ca565b6100eb565b005b6100a5610181565b6040516100b29190610483565b60405180910390f35b6100d560048036038101906100d0919061038e565b610189565b005b600063150b7a0260e01b9050949350505050565b8373ffffffffffffffffffffffffffffffffffffffff16636295c61a8484846040518463ffffffff1660e01b81526004016101289392919061049e565b602060405180830381600087803b15801561014257600080fd5b505af1158015610156573d6000803e3d6000fd5b505050506040513d601f19601f8201168201806040525081019061017a91906102ea565b5050505050565b600033905090565b8173ffffffffffffffffffffffffffffffffffffffff1663f2fb2120826040518263ffffffff1660e01b81526004016101c29190610483565b602060405180830381600087803b1580156101dc57600080fd5b505af11580156101f0573d6000803e3d6000fd5b505050506040513d601f19601f82011682018060405250810190610214919061042d565b505050565b600061022c61022784610521565b6104f0565b90508281526020810184848401111561024457600080fd5b61024f8482856105cb565b509392505050565b60008135905061026681610609565b92915050565b60008151905061027b81610609565b92915050565b600082601f83011261029257600080fd5b81356102a2848260208601610219565b91505092915050565b6000813590506102ba81610620565b92915050565b6000813590506102cf81610637565b92915050565b6000815190506102e481610637565b92915050565b6000602082840312156102fc57600080fd5b600061030a8482850161026c565b91505092915050565b6000806000806080858703121561032957600080fd5b600061033787828801610257565b945050602061034887828801610257565b9350506040610359878288016102c0565b925050606085013567ffffffffffffffff81111561037657600080fd5b61038287828801610281565b91505092959194509250565b600080604083850312156103a157600080fd5b60006103af858286016102ab565b92505060206103c085828601610257565b9150509250929050565b600080600080608085870312156103e057600080fd5b60006103ee878288016102ab565b94505060206103ff87828801610257565b935050604061041087828801610257565b9250506060610421878288016102c0565b91505092959194509250565b60006020828403121561043f57600080fd5b600061044d848285016102d5565b91505092915050565b61045f81610551565b82525050565b61046e81610563565b82525050565b61047d816105c1565b82525050565b60006020820190506104986000830184610456565b92915050565b60006060820190506104b36000830186610456565b6104c06020830185610456565b6104cd6040830184610474565b949350505050565b60006020820190506104ea6000830184610465565b92915050565b6000604051905081810181811067ffffffffffffffff82111715610517576105166105da565b5b8060405250919050565b600067ffffffffffffffff82111561053c5761053b6105da565b5b601f19601f8301169050602081019050919050565b600061055c826105a1565b9050919050565b60007fffffffff0000000000000000000000000000000000000000000000000000000082169050919050565b600061059a82610551565b9050919050565b600073ffffffffffffffffffffffffffffffffffffffff82169050919050565b6000819050919050565b82818337600083830152505050565b7f4e487b7100000000000000000000000000000000000000000000000000000000600052604160045260246000fd5b61061281610551565b811461061d57600080fd5b50565b6106298161058f565b811461063457600080fd5b50565b610640816105c1565b811461064b57600080fd5b5056fea2646970667358221220f4b4b13395c69d4e825e3c182f34be77b2b2191ece55845671dc7027c38db26664736f6c63430008000033",
  "immutableReferences": {},
  "source": "pragma solidity ^0.8.0;\r\n\r\n//import \"zeppelin-solidity/contracts/token/ERC721/ERC721Token.sol\";\r\n\r\nimport \"openzeppelin-solidity/contracts/token/ERC721/ERC721.sol\";\r\nimport \"openzeppelin-solidity/contracts/utils/Counters.sol\";\r\nimport \"openzeppelin-solidity/contracts/token/ERC721/IERC721Receiver.sol\";\r\n\r\ncontract LoanToken is ERC721 {\r\n    //    constructor () ERC721Token (\" LoanToken \",\" LTC \") public {\r\n    //    }\r\n    //\r\n    //    function mint ( address _company , uint256 _tokenId )\r\n    //    public {\r\n    //        super . _mint ( _company , _tokenId );\r\n    //    }\r\n    using Counters for Counters.Counter;\r\n    Counters.Counter private _tokenIds;\r\n    string BName;\r\n    string BSymbol;\r\n    uint256 newItemId;\r\n\r\n    constructor() public ERC721(\"LoanToken\", \"LTC\") {}\r\n\r\n    function awardItem(address player) public returns (uint256){\r\n        _tokenIds.increment();\r\n\r\n        newItemId = _tokenIds.current();\r\n        _mint(player, newItemId);\r\n        //_setTokenURI(newItemId, tokenURI);\r\n        return newItemId;\r\n    }\r\n\r\n    function getItemId() public view returns(uint256){\r\n        return newItemId;\r\n    }\r\n\r\n    function returnNum() public view returns(uint256){\r\n        return 5;\r\n    }\r\n\r\n\r\n    function transferItem(address sender, address receiver, uint256 id) public returns (address){\r\n        transferFrom(sender, receiver, id);\r\n        return receiver;\r\n    }\r\n}\r\n\r\ncontract LoanContract is IERC721Receiver {\r\n//    LoanToken token;\r\n//\r\n//    constructor() public{\r\n//        LoanToken newToken = new LoanToken();\r\n//    }\r\n    function onERC721Received(address, address, uint256, bytes memory) public virtual override returns (bytes4) {\r\n        return this.onERC721Received.selector;\r\n    }\r\n\r\n    function getIssuer() public returns (address){\r\n        return msg.sender;\r\n    }\r\n\r\n    function createToken(LoanToken token, address sender) public{\r\n        token.awardItem(sender);\r\n    }\r\n\r\n    function transferToken(LoanToken token, address sender, address receiver, uint256 id) public{\r\n        token.transferItem(sender, receiver, id);\r\n    }\r\n}\r\n",
  "sourcePath": "E:/myproject/contracts/LoanToken.sol",
  "compiler": {
    "name": "solc",
    "version": "0.8.0+commit.c7dfd78e.Emscripten.clang"
  },
  "schemaVersion": "3.4.1",
  "updatedAt": "2021-07-26T02:24:01.695Z",
  "networkType": "ethereum",
  "devdoc": {
    "kind": "dev",
    "methods": {},
    "version": 1
  },
  "userdoc": {
    "kind": "user",
    "methods": {},
    "version": 1
  }
}