{
  "contractName": "LoanContract",
  "abi": [
    {
      "inputs": [
        {
          "internalType": "address",
          "name": "",
          "type": "address"
        },
        {
          "internalType": "address",
          "name": "",
          "type": "address"
        },
        {
          "internalType": "uint256",
          "name": "",
          "type": "uint256"
        },
        {
          "internalType": "bytes",
          "name": "",
          "type": "bytes"
        }
      ],
      "name": "onERC721Received",
      "outputs": [
        {
          "internalType": "bytes4",
          "name": "",
          "type": "bytes4"
        }
      ],
      "stateMutability": "nonpayable",
      "type": "function"
    },
    {
      "inputs": [],
      "name": "getIssuer",
      "outputs": [
        {
          "internalType": "address",
          "name": "",
          "type": "address"
        }
      ],
      "stateMutability": "nonpayable",
      "type": "function"
    }
  ],
  "bytecode": "0x608060405234801561001057600080fd5b50610371806100206000396000f3fe608060405234801561001057600080fd5b50600436106100365760003560e01c8063150b7a021461003b578063525564211461006b575b600080fd5b61005560048036038101906100509190610137565b610089565b60405161006291906101eb565b60405180910390f35b61007361009d565b60405161008091906101d0565b60405180910390f35b600063150b7a0260e01b9050949350505050565b600033905090565b60006100b86100b384610237565b610206565b9050828152602081018484840111156100d057600080fd5b6100db8482856102cf565b509392505050565b6000813590506100f28161030d565b92915050565b600082601f83011261010957600080fd5b81356101198482602086016100a5565b91505092915050565b60008135905061013181610324565b92915050565b6000806000806080858703121561014d57600080fd5b600061015b878288016100e3565b945050602061016c878288016100e3565b935050604061017d87828801610122565b925050606085013567ffffffffffffffff81111561019a57600080fd5b6101a6878288016100f8565b91505092959194509250565b6101bb81610267565b82525050565b6101ca81610279565b82525050565b60006020820190506101e560008301846101b2565b92915050565b600060208201905061020060008301846101c1565b92915050565b6000604051905081810181811067ffffffffffffffff8211171561022d5761022c6102de565b5b8060405250919050565b600067ffffffffffffffff821115610252576102516102de565b5b601f19601f8301169050602081019050919050565b6000610272826102a5565b9050919050565b60007fffffffff0000000000000000000000000000000000000000000000000000000082169050919050565b600073ffffffffffffffffffffffffffffffffffffffff82169050919050565b6000819050919050565b82818337600083830152505050565b7f4e487b7100000000000000000000000000000000000000000000000000000000600052604160045260246000fd5b61031681610267565b811461032157600080fd5b50565b61032d816102c5565b811461033857600080fd5b5056fea2646970667358221220a5b0629de69a13586da269cf78cd529e5ae209e3c067f0471e07a43e2634bcd164736f6c63430008000033",
  "immutableReferences": {},
  "source": "pragma solidity ^0.8.0;\r\n\r\nimport \"openzeppelin-solidity/contracts/token/ERC721/IERC721Receiver.sol\";\r\nimport \"./LoanToken.sol\";\r\n\r\ncontract LoanContract is IERC721Receiver {\r\n    function onERC721Received(address, address, uint256, bytes memory) public virtual override returns (bytes4) {\r\n        return this.onERC721Received.selector;\r\n    }\r\n\r\n    function getIssuer() public returns (address){\r\n        return msg.sender;\r\n    }\r\n}\r\n\r\n\r\n",
  "sourcePath": "E:/myproject/contracts/LoanContract.sol",
  "compiler": {
    "name": "solc",
    "version": "0.8.0+commit.c7dfd78e.Emscripten.clang"
  },
  "schemaVersion": "3.4.1",
  "updatedAt": "2021-07-02T00:00:10.488Z",
  "networkType": "ethereum",
  "devdoc": {
    "kind": "dev",
    "methods": {},
    "version": 1
  },
  "userdoc": {
    "kind": "user",
    "methods": {},
    "version": 1
  }
}