{
  "contractName": "LoanToken",
  "abi": [
    {
      "constant": true,
      "inputs": [
        {
          "name": "_interfaceId",
          "type": "bytes4"
        }
      ],
      "name": "supportsInterface",
      "outputs": [
        {
          "name": "",
          "type": "bool"
        }
      ],
      "payable": false,
      "stateMutability": "view",
      "type": "function"
    },
    {
      "constant": true,
      "inputs": [],
      "name": "name",
      "outputs": [
        {
          "name": "",
          "type": "string"
        }
      ],
      "payable": false,
      "stateMutability": "view",
      "type": "function"
    },
    {
      "constant": true,
      "inputs": [
        {
          "name": "_tokenId",
          "type": "uint256"
        }
      ],
      "name": "getApproved",
      "outputs": [
        {
          "name": "",
          "type": "address"
        }
      ],
      "payable": false,
      "stateMutability": "view",
      "type": "function"
    },
    {
      "constant": false,
      "inputs": [
        {
          "name": "_to",
          "type": "address"
        },
        {
          "name": "_tokenId",
          "type": "uint256"
        }
      ],
      "name": "approve",
      "outputs": [],
      "payable": false,
      "stateMutability": "nonpayable",
      "type": "function"
    },
    {
      "constant": true,
      "inputs": [],
      "name": "totalSupply",
      "outputs": [
        {
          "name": "",
          "type": "uint256"
        }
      ],
      "payable": false,
      "stateMutability": "view",
      "type": "function"
    },
    {
      "constant": true,
      "inputs": [],
      "name": "InterfaceId_ERC165",
      "outputs": [
        {
          "name": "",
          "type": "bytes4"
        }
      ],
      "payable": false,
      "stateMutability": "view",
      "type": "function"
    },
    {
      "constant": false,
      "inputs": [
        {
          "name": "_from",
          "type": "address"
        },
        {
          "name": "_to",
          "type": "address"
        },
        {
          "name": "_tokenId",
          "type": "uint256"
        }
      ],
      "name": "transferFrom",
      "outputs": [],
      "payable": false,
      "stateMutability": "nonpayable",
      "type": "function"
    },
    {
      "constant": true,
      "inputs": [
        {
          "name": "_owner",
          "type": "address"
        },
        {
          "name": "_index",
          "type": "uint256"
        }
      ],
      "name": "tokenOfOwnerByIndex",
      "outputs": [
        {
          "name": "",
          "type": "uint256"
        }
      ],
      "payable": false,
      "stateMutability": "view",
      "type": "function"
    },
    {
      "constant": false,
      "inputs": [
        {
          "name": "_from",
          "type": "address"
        },
        {
          "name": "_to",
          "type": "address"
        },
        {
          "name": "_tokenId",
          "type": "uint256"
        }
      ],
      "name": "safeTransferFrom",
      "outputs": [],
      "payable": false,
      "stateMutability": "nonpayable",
      "type": "function"
    },
    {
      "constant": true,
      "inputs": [
        {
          "name": "_tokenId",
          "type": "uint256"
        }
      ],
      "name": "exists",
      "outputs": [
        {
          "name": "",
          "type": "bool"
        }
      ],
      "payable": false,
      "stateMutability": "view",
      "type": "function"
    },
    {
      "constant": true,
      "inputs": [
        {
          "name": "_index",
          "type": "uint256"
        }
      ],
      "name": "tokenByIndex",
      "outputs": [
        {
          "name": "",
          "type": "uint256"
        }
      ],
      "payable": false,
      "stateMutability": "view",
      "type": "function"
    },
    {
      "constant": true,
      "inputs": [
        {
          "name": "_tokenId",
          "type": "uint256"
        }
      ],
      "name": "ownerOf",
      "outputs": [
        {
          "name": "",
          "type": "address"
        }
      ],
      "payable": false,
      "stateMutability": "view",
      "type": "function"
    },
    {
      "constant": true,
      "inputs": [
        {
          "name": "_owner",
          "type": "address"
        }
      ],
      "name": "balanceOf",
      "outputs": [
        {
          "name": "",
          "type": "uint256"
        }
      ],
      "payable": false,
      "stateMutability": "view",
      "type": "function"
    },
    {
      "constant": true,
      "inputs": [],
      "name": "totalTokens",
      "outputs": [
        {
          "name": "",
          "type": "uint256"
        }
      ],
      "payable": false,
      "stateMutability": "view",
      "type": "function"
    },
    {
      "constant": true,
      "inputs": [],
      "name": "symbol",
      "outputs": [
        {
          "name": "",
          "type": "string"
        }
      ],
      "payable": false,
      "stateMutability": "view",
      "type": "function"
    },
    {
      "constant": false,
      "inputs": [
        {
          "name": "_to",
          "type": "address"
        },
        {
          "name": "_approved",
          "type": "bool"
        }
      ],
      "name": "setApprovalForAll",
      "outputs": [],
      "payable": false,
      "stateMutability": "nonpayable",
      "type": "function"
    },
    {
      "constant": false,
      "inputs": [
        {
          "name": "_from",
          "type": "address"
        },
        {
          "name": "_to",
          "type": "address"
        },
        {
          "name": "_tokenId",
          "type": "uint256"
        },
        {
          "name": "_data",
          "type": "bytes"
        }
      ],
      "name": "safeTransferFrom",
      "outputs": [],
      "payable": false,
      "stateMutability": "nonpayable",
      "type": "function"
    },
    {
      "constant": true,
      "inputs": [
        {
          "name": "_tokenId",
          "type": "uint256"
        }
      ],
      "name": "tokenURI",
      "outputs": [
        {
          "name": "",
          "type": "string"
        }
      ],
      "payable": false,
      "stateMutability": "view",
      "type": "function"
    },
    {
      "constant": true,
      "inputs": [
        {
          "name": "_owner",
          "type": "address"
        },
        {
          "name": "_operator",
          "type": "address"
        }
      ],
      "name": "isApprovedForAll",
      "outputs": [
        {
          "name": "",
          "type": "bool"
        }
      ],
      "payable": false,
      "stateMutability": "view",
      "type": "function"
    },
    {
      "inputs": [],
      "payable": false,
      "stateMutability": "nonpayable",
      "type": "constructor"
    },
    {
      "anonymous": false,
      "inputs": [
        {
          "indexed": true,
          "name": "_from",
          "type": "address"
        },
        {
          "indexed": true,
          "name": "_to",
          "type": "address"
        },
        {
          "indexed": true,
          "name": "_tokenId",
          "type": "uint256"
        }
      ],
      "name": "Transfer",
      "type": "event"
    },
    {
      "anonymous": false,
      "inputs": [
        {
          "indexed": true,
          "name": "_owner",
          "type": "address"
        },
        {
          "indexed": true,
          "name": "_approved",
          "type": "address"
        },
        {
          "indexed": true,
          "name": "_tokenId",
          "type": "uint256"
        }
      ],
      "name": "Approval",
      "type": "event"
    },
    {
      "anonymous": false,
      "inputs": [
        {
          "indexed": true,
          "name": "_owner",
          "type": "address"
        },
        {
          "indexed": true,
          "name": "_operator",
          "type": "address"
        },
        {
          "indexed": false,
          "name": "_approved",
          "type": "bool"
        }
      ],
      "name": "ApprovalForAll",
      "type": "event"
    }
  ],
  "bytecode": "0x60806040523480156200001157600080fd5b506040805190810160405280600981526020017f4c6f616e546f6b656e00000000000000000000000000000000000000000000008152506040805190810160405280600381526020017f4c54430000000000000000000000000000000000000000000000000000000000815250620000bb6301ffc9a77c010000000000000000000000000000000000000000000000000000000002620001e9640100000000026401000000009004565b620000f86380ac58cd7c010000000000000000000000000000000000000000000000000000000002620001e9640100000000026401000000009004565b62000135634f558e797c010000000000000000000000000000000000000000000000000000000002620001e9640100000000026401000000009004565b81600590805190602001906200014d929190620002a7565b50806006908051906020019062000166929190620002a7565b50620001a463780e9d637c010000000000000000000000000000000000000000000000000000000002620001e9640100000000026401000000009004565b620001e1635b5e139f7c010000000000000000000000000000000000000000000000000000000002620001e9640100000000026401000000009004565b505062000356565b63ffffffff7c010000000000000000000000000000000000000000000000000000000002817bffffffffffffffffffffffffffffffffffffffffffffffffffffffff1916141515156200023b57600080fd5b6001600080837bffffffffffffffffffffffffffffffffffffffffffffffffffffffff19167bffffffffffffffffffffffffffffffffffffffffffffffffffffffff1916815260200190815260200160002060006101000a81548160ff02191690831515021790555050565b828054600181600116156101000203166002900490600052602060002090601f016020900481019282601f10620002ea57805160ff19168380011785556200031b565b828001600101855582156200031b579182015b828111156200031a578251825591602001919060010190620002fd565b5b5090506200032a91906200032e565b5090565b6200035391905b808211156200034f57600081600090555060010162000335565b5090565b90565b611bc480620003666000396000f300608060405260043610610107576000357c0100000000000000000000000000000000000000000000000000000000900463ffffffff16806301ffc9a71461010c57806306fdde0314610170578063081812fc14610200578063095ea7b31461026d57806318160ddd146102ba57806319fa8f50146102e557806323b872dd1461034e5780632f745c59146103bb57806342842e0e1461041c5780634f558e79146104895780634f6ccce7146104ce5780636352211e1461050f57806370a082311461057c5780637e1c0c09146105d357806395d89b41146105fe578063a22cb4651461068e578063b88d4fde146106dd578063c87b56dd14610790578063e985e9c514610836575b600080fd5b34801561011857600080fd5b5061015660048036038101908080357bffffffffffffffffffffffffffffffffffffffffffffffffffffffff191690602001909291905050506108b1565b604051808215151515815260200191505060405180910390f35b34801561017c57600080fd5b50610185610918565b6040518080602001828103825283818151815260200191508051906020019080838360005b838110156101c55780820151818401526020810190506101aa565b50505050905090810190601f1680156101f25780820380516001836020036101000a031916815260200191505b509250505060405180910390f35b34801561020c57600080fd5b5061022b600480360381019080803590602001909291905050506109ba565b604051808273ffffffffffffffffffffffffffffffffffffffff1673ffffffffffffffffffffffffffffffffffffffff16815260200191505060405180910390f35b34801561027957600080fd5b506102b8600480360381019080803573ffffffffffffffffffffffffffffffffffffffff169060200190929190803590602001909291905050506109f7565b005b3480156102c657600080fd5b506102cf610b3c565b6040518082815260200191505060405180910390f35b3480156102f157600080fd5b506102fa610b49565b60405180827bffffffffffffffffffffffffffffffffffffffffffffffffffffffff19167bffffffffffffffffffffffffffffffffffffffffffffffffffffffff1916815260200191505060405180910390f35b34801561035a57600080fd5b506103b9600480360381019080803573ffffffffffffffffffffffffffffffffffffffff169060200190929190803573ffffffffffffffffffffffffffffffffffffffff16906020019092919080359060200190929190505050610b70565b005b3480156103c757600080fd5b50610406600480360381019080803573ffffffffffffffffffffffffffffffffffffffff16906020019092919080359060200190929190505050610c7b565b6040518082815260200191505060405180910390f35b34801561042857600080fd5b50610487600480360381019080803573ffffffffffffffffffffffffffffffffffffffff169060200190929190803573ffffffffffffffffffffffffffffffffffffffff16906020019092919080359060200190929190505050610cf2565b005b34801561049557600080fd5b506104b460048036038101908080359060200190929190505050610d13565b604051808215151515815260200191505060405180910390f35b3480156104da57600080fd5b506104f960048036038101908080359060200190929190505050610d85565b6040518082815260200191505060405180910390f35b34801561051b57600080fd5b5061053a60048036038101908080359060200190929190505050610dbd565b604051808273ffffffffffffffffffffffffffffffffffffffff1673ffffffffffffffffffffffffffffffffffffffff16815260200191505060405180910390f35b34801561058857600080fd5b506105bd600480360381019080803573ffffffffffffffffffffffffffffffffffffffff169060200190929190505050610e3b565b6040518082815260200191505060405180910390f35b3480156105df57600080fd5b506105e8610ebf565b6040518082815260200191505060405180910390f35b34801561060a57600080fd5b50610613610ec6565b6040518080602001828103825283818151815260200191508051906020019080838360005b83811015610653578082015181840152602081019050610638565b50505050905090810190601f1680156106805780820380516001836020036101000a031916815260200191505b509250505060405180910390f35b34801561069a57600080fd5b506106db600480360381019080803573ffffffffffffffffffffffffffffffffffffffff169060200190929190803515159060200190929190505050610f68565b005b3480156106e957600080fd5b5061078e600480360381019080803573ffffffffffffffffffffffffffffffffffffffff169060200190929190803573ffffffffffffffffffffffffffffffffffffffff16906020019092919080359060200190929190803590602001908201803590602001908080601f01602080910402602001604051908101604052809392919081815260200183838082843782019150505050505091929192905050506110a4565b005b34801561079c57600080fd5b506107bb600480360381019080803590602001909291905050506110cc565b6040518080602001828103825283818151815260200191508051906020019080838360005b838110156107fb5780820151818401526020810190506107e0565b50505050905090810190601f1680156108285780820380516001836020036101000a031916815260200191505b509250505060405180910390f35b34801561084257600080fd5b50610897600480360381019080803573ffffffffffffffffffffffffffffffffffffffff169060200190929190803573ffffffffffffffffffffffffffffffffffffffff169060200190929190505050611195565b604051808215151515815260200191505060405180910390f35b6000806000837bffffffffffffffffffffffffffffffffffffffffffffffffffffffff19167bffffffffffffffffffffffffffffffffffffffffffffffffffffffff1916815260200190815260200160002060009054906101000a900460ff169050919050565b606060058054600181600116156101000203166002900480601f0160208091040260200160405190810160405280929190818152602001828054600181600116156101000203166002900480156109b05780601f10610985576101008083540402835291602001916109b0565b820191906000526020600020905b81548152906001019060200180831161099357829003601f168201915b5050505050905090565b60006002600083815260200190815260200160002060009054906101000a900473ffffffffffffffffffffffffffffffffffffffff169050919050565b6000610a0282610dbd565b90508073ffffffffffffffffffffffffffffffffffffffff168373ffffffffffffffffffffffffffffffffffffffff1614151515610a3f57600080fd5b8073ffffffffffffffffffffffffffffffffffffffff163373ffffffffffffffffffffffffffffffffffffffff161480610a7f5750610a7e8133611195565b5b1515610a8a57600080fd5b826002600084815260200190815260200160002060006101000a81548173ffffffffffffffffffffffffffffffffffffffff021916908373ffffffffffffffffffffffffffffffffffffffff160217905550818373ffffffffffffffffffffffffffffffffffffffff168273ffffffffffffffffffffffffffffffffffffffff167f8c5be1e5ebec7d5bd14f71427d1e84f3dd0314c0f7b2291e5b200ac8c7c3b92560405160405180910390a4505050565b6000600980549050905090565b6301ffc9a77c01000000000000000000000000000000000000000000000000000000000281565b610b7a3382611229565b1515610b8557600080fd5b600073ffffffffffffffffffffffffffffffffffffffff168373ffffffffffffffffffffffffffffffffffffffff1614151515610bc157600080fd5b600073ffffffffffffffffffffffffffffffffffffffff168273ffffffffffffffffffffffffffffffffffffffff1614151515610bfd57600080fd5b610c0783826112be565b610c1183826113c1565b610c1b828261157d565b808273ffffffffffffffffffffffffffffffffffffffff168473ffffffffffffffffffffffffffffffffffffffff167fddf252ad1be2c89b69c2b068fc378daa952ba7f163c4a11628f55a4df523b3ef60405160405180910390a4505050565b6000610c8683610e3b565b82101515610c9357600080fd5b600760008473ffffffffffffffffffffffffffffffffffffffff1673ffffffffffffffffffffffffffffffffffffffff16815260200190815260200160002082815481101515610cdf57fe5b9060005260206000200154905092915050565b610d0e83838360206040519081016040528060008152506110a4565b505050565b6000806001600084815260200190815260200160002060009054906101000a900473ffffffffffffffffffffffffffffffffffffffff169050600073ffffffffffffffffffffffffffffffffffffffff168173ffffffffffffffffffffffffffffffffffffffff161415915050919050565b6000610d8f610b3c565b82101515610d9c57600080fd5b600982815481101515610dab57fe5b90600052602060002001549050919050565b6000806001600084815260200190815260200160002060009054906101000a900473ffffffffffffffffffffffffffffffffffffffff169050600073ffffffffffffffffffffffffffffffffffffffff168173ffffffffffffffffffffffffffffffffffffffff1614151515610e3257600080fd5b80915050919050565b60008073ffffffffffffffffffffffffffffffffffffffff168273ffffffffffffffffffffffffffffffffffffffff1614151515610e7857600080fd5b600360008373ffffffffffffffffffffffffffffffffffffffff1673ffffffffffffffffffffffffffffffffffffffff168152602001908152602001600020549050919050565b620186a081565b606060068054600181600116156101000203166002900480601f016020809104026020016040519081016040528092919081815260200182805460018160011615610100020316600290048015610f5e5780601f10610f3357610100808354040283529160200191610f5e565b820191906000526020600020905b815481529060010190602001808311610f4157829003601f168201915b5050505050905090565b3373ffffffffffffffffffffffffffffffffffffffff168273ffffffffffffffffffffffffffffffffffffffff1614151515610fa357600080fd5b80600460003373ffffffffffffffffffffffffffffffffffffffff1673ffffffffffffffffffffffffffffffffffffffff16815260200190815260200160002060008473ffffffffffffffffffffffffffffffffffffffff1673ffffffffffffffffffffffffffffffffffffffff16815260200190815260200160002060006101000a81548160ff0219169083151502179055508173ffffffffffffffffffffffffffffffffffffffff163373ffffffffffffffffffffffffffffffffffffffff167f17307eab39ab6107e8899845ad3d59bd9653f200f220920489ca2b5937696c3183604051808215151515815260200191505060405180910390a35050565b6110af848484610b70565b6110bb84848484611654565b15156110c657600080fd5b50505050565b60606110d782610d13565b15156110e257600080fd5b600b60008381526020019081526020016000208054600181600116156101000203166002900480601f0160208091040260200160405190810160405280929190818152602001828054600181600116156101000203166002900480156111895780601f1061115e57610100808354040283529160200191611189565b820191906000526020600020905b81548152906001019060200180831161116c57829003601f168201915b50505050509050919050565b6000600460008473ffffffffffffffffffffffffffffffffffffffff1673ffffffffffffffffffffffffffffffffffffffff16815260200190815260200160002060008373ffffffffffffffffffffffffffffffffffffffff1673ffffffffffffffffffffffffffffffffffffffff16815260200190815260200160002060009054906101000a900460ff16905092915050565b60008061123583610dbd565b90508073ffffffffffffffffffffffffffffffffffffffff168473ffffffffffffffffffffffffffffffffffffffff1614806112a457508373ffffffffffffffffffffffffffffffffffffffff1661128c846109ba565b73ffffffffffffffffffffffffffffffffffffffff16145b806112b557506112b48185611195565b5b91505092915050565b8173ffffffffffffffffffffffffffffffffffffffff166112de82610dbd565b73ffffffffffffffffffffffffffffffffffffffff1614151561130057600080fd5b600073ffffffffffffffffffffffffffffffffffffffff166002600083815260200190815260200160002060009054906101000a900473ffffffffffffffffffffffffffffffffffffffff1673ffffffffffffffffffffffffffffffffffffffff161415156113bd5760006002600083815260200190815260200160002060006101000a81548173ffffffffffffffffffffffffffffffffffffffff021916908373ffffffffffffffffffffffffffffffffffffffff1602179055505b5050565b60008060006113d08585611876565b6008600085815260200190815260200160002054925061143c6001600760008873ffffffffffffffffffffffffffffffffffffffff1673ffffffffffffffffffffffffffffffffffffffff168152602001908152602001600020805490506119a590919063ffffffff16565b9150600760008673ffffffffffffffffffffffffffffffffffffffff1673ffffffffffffffffffffffffffffffffffffffff1681526020019081526020016000208281548110151561148a57fe5b9060005260206000200154905080600760008773ffffffffffffffffffffffffffffffffffffffff1673ffffffffffffffffffffffffffffffffffffffff168152602001908152602001600020848154811015156114e457fe5b9060005260206000200181905550600760008673ffffffffffffffffffffffffffffffffffffffff1673ffffffffffffffffffffffffffffffffffffffff1681526020019081526020016000208054809190600190036115449190611b47565b50600060086000868152602001908152602001600020819055508260086000838152602001908152602001600020819055505050505050565b600061158983836119be565b600760008473ffffffffffffffffffffffffffffffffffffffff1673ffffffffffffffffffffffffffffffffffffffff168152602001908152602001600020805490509050600760008473ffffffffffffffffffffffffffffffffffffffff1673ffffffffffffffffffffffffffffffffffffffff168152602001908152602001600020829080600181540180825580915050906001820390600052602060002001600090919290919091505550806008600084815260200190815260200160002081905550505050565b6000806116768573ffffffffffffffffffffffffffffffffffffffff16611b18565b1515611685576001915061186d565b8473ffffffffffffffffffffffffffffffffffffffff1663150b7a02338887876040518563ffffffff167c0100000000000000000000000000000000000000000000000000000000028152600401808573ffffffffffffffffffffffffffffffffffffffff1673ffffffffffffffffffffffffffffffffffffffff1681526020018473ffffffffffffffffffffffffffffffffffffffff1673ffffffffffffffffffffffffffffffffffffffff16815260200183815260200180602001828103825283818151815260200191508051906020019080838360005b8381101561177a57808201518184015260208101905061175f565b50505050905090810190601f1680156117a75780820380516001836020036101000a031916815260200191505b5095505050505050602060405180830381600087803b1580156117c957600080fd5b505af11580156117dd573d6000803e3d6000fd5b505050506040513d60208110156117f357600080fd5b8101908080519060200190929190505050905063150b7a027c0100000000000000000000000000000000000000000000000000000000027bffffffffffffffffffffffffffffffffffffffffffffffffffffffff1916817bffffffffffffffffffffffffffffffffffffffffffffffffffffffff19161491505b50949350505050565b8173ffffffffffffffffffffffffffffffffffffffff1661189682610dbd565b73ffffffffffffffffffffffffffffffffffffffff161415156118b857600080fd5b61190b6001600360008573ffffffffffffffffffffffffffffffffffffffff1673ffffffffffffffffffffffffffffffffffffffff168152602001908152602001600020546119a590919063ffffffff16565b600360008473ffffffffffffffffffffffffffffffffffffffff1673ffffffffffffffffffffffffffffffffffffffff1681526020019081526020016000208190555060006001600083815260200190815260200160002060006101000a81548173ffffffffffffffffffffffffffffffffffffffff021916908373ffffffffffffffffffffffffffffffffffffffff1602179055505050565b60008282111515156119b357fe5b818303905092915050565b600073ffffffffffffffffffffffffffffffffffffffff166001600083815260200190815260200160002060009054906101000a900473ffffffffffffffffffffffffffffffffffffffff1673ffffffffffffffffffffffffffffffffffffffff16141515611a2c57600080fd5b816001600083815260200190815260200160002060006101000a81548173ffffffffffffffffffffffffffffffffffffffff021916908373ffffffffffffffffffffffffffffffffffffffff160217905550611ad16001600360008573ffffffffffffffffffffffffffffffffffffffff1673ffffffffffffffffffffffffffffffffffffffff16815260200190815260200160002054611b2b90919063ffffffff16565b600360008473ffffffffffffffffffffffffffffffffffffffff1673ffffffffffffffffffffffffffffffffffffffff168152602001908152602001600020819055505050565b600080823b905060008111915050919050565b60008183019050828110151515611b3e57fe5b80905092915050565b815481835581811115611b6e57818360005260206000209182019101611b6d9190611b73565b5b505050565b611b9591905b80821115611b91576000816000905550600101611b79565b5090565b905600a165627a7a72305820bc58fec46640c9d7fd13d2f3a083f0eafade6e77f9fd21f1c5f6a60ac4edd0650029",
  "source": "pragma solidity >=0.4.22 <0.9.0;\r\n\r\nimport \"zeppelin-solidity/contracts/token/ERC721/ERC721Token.sol\";\r\n//import \"zeppelin-solidity/contracts/ownership/Ownable.sol\";\r\n//import \"openzeppelin/contracts/utils/Counters.sol\";\r\n\r\ncontract LoanToken is ERC721Token{\r\n    uint256 public constant totalTokens = 100000;\r\n    constructor() ERC721Token(\"LoanToken\",\"LTC\")public{\r\n\r\n    }\r\n\r\n//    function mint(address _company, uint256 _tokenId) public {\r\n//        super._mint(_company, _tokenId);\r\n//    }\r\n}\r\n",
  "sourcePath": "E:/myproject/contracts/LoanToken.sol",
  "compiler": {
    "name": "solc",
    "version": "0.4.24+commit.e67f0147.Emscripten.clang"
  },
  "schemaVersion": "3.3.4",
  "updatedAt": "2021-05-12T22:50:47.432Z",
  "networkType": "ethereum",
  "devdoc": {
    "methods": {
      "approve(address,uint256)": {
        "details": "Approves another address to transfer the given token ID The zero address indicates there is no approved address. There can only be one approved address per token at a given time. Can only be called by the token owner or an approved operator.",
        "params": {
          "_to": "address to be approved for the given token ID",
          "_tokenId": "uint256 ID of the token to be approved"
        }
      },
      "balanceOf(address)": {
        "details": "Gets the balance of the specified address",
        "params": {
          "_owner": "address to query the balance of"
        },
        "return": "uint256 representing the amount owned by the passed address"
      },
      "exists(uint256)": {
        "details": "Returns whether the specified token exists",
        "params": {
          "_tokenId": "uint256 ID of the token to query the existence of"
        },
        "return": "whether the token exists"
      },
      "getApproved(uint256)": {
        "details": "Gets the approved address for a token ID, or zero if no address set",
        "params": {
          "_tokenId": "uint256 ID of the token to query the approval of"
        },
        "return": "address currently approved for the given token ID"
      },
      "isApprovedForAll(address,address)": {
        "details": "Tells whether an operator is approved by a given owner",
        "params": {
          "_operator": "operator address which you want to query the approval of",
          "_owner": "owner address which you want to query the approval of"
        },
        "return": "bool whether the given operator is approved by the given owner"
      },
      "name()": {
        "details": "Gets the token name",
        "return": "string representing the token name"
      },
      "ownerOf(uint256)": {
        "details": "Gets the owner of the specified token ID",
        "params": {
          "_tokenId": "uint256 ID of the token to query the owner of"
        },
        "return": "owner address currently marked as the owner of the given token ID"
      },
      "safeTransferFrom(address,address,uint256)": {
        "details": "Safely transfers the ownership of a given token ID to another address If the target address is a contract, it must implement `onERC721Received`, which is called upon a safe transfer, and return the magic value `bytes4(keccak256(\"onERC721Received(address,address,uint256,bytes)\"))`; otherwise, the transfer is reverted.   * Requires the msg sender to be the owner, approved, or operator",
        "params": {
          "_from": "current owner of the token",
          "_to": "address to receive the ownership of the given token ID",
          "_tokenId": "uint256 ID of the token to be transferred"
        }
      },
      "safeTransferFrom(address,address,uint256,bytes)": {
        "details": "Safely transfers the ownership of a given token ID to another address If the target address is a contract, it must implement `onERC721Received`, which is called upon a safe transfer, and return the magic value `bytes4(keccak256(\"onERC721Received(address,address,uint256,bytes)\"))`; otherwise, the transfer is reverted. Requires the msg sender to be the owner, approved, or operator",
        "params": {
          "_data": "bytes data to send along with a safe transfer check",
          "_from": "current owner of the token",
          "_to": "address to receive the ownership of the given token ID",
          "_tokenId": "uint256 ID of the token to be transferred"
        }
      },
      "setApprovalForAll(address,bool)": {
        "details": "Sets or unsets the approval of a given operator An operator is allowed to transfer all tokens of the sender on their behalf",
        "params": {
          "_approved": "representing the status of the approval to be set",
          "_to": "operator address to set the approval"
        }
      },
      "supportsInterface(bytes4)": {
        "details": "implement supportsInterface(bytes4) using a lookup table"
      },
      "symbol()": {
        "details": "Gets the token symbol",
        "return": "string representing the token symbol"
      },
      "tokenByIndex(uint256)": {
        "details": "Gets the token ID at a given index of all the tokens in this contract Reverts if the index is greater or equal to the total number of tokens",
        "params": {
          "_index": "uint256 representing the index to be accessed of the tokens list"
        },
        "return": "uint256 token ID at the given index of the tokens list"
      },
      "tokenOfOwnerByIndex(address,uint256)": {
        "details": "Gets the token ID at a given index of the tokens list of the requested owner",
        "params": {
          "_index": "uint256 representing the index to be accessed of the requested tokens list",
          "_owner": "address owning the tokens list to be accessed"
        },
        "return": "uint256 token ID at the given index of the tokens list owned by the requested address"
      },
      "tokenURI(uint256)": {
        "details": "Returns an URI for a given token ID Throws if the token ID does not exist. May return an empty string.",
        "params": {
          "_tokenId": "uint256 ID of the token to query"
        }
      },
      "totalSupply()": {
        "details": "Gets the total amount of tokens stored by the contract",
        "return": "uint256 representing the total amount of tokens"
      },
      "transferFrom(address,address,uint256)": {
        "details": "Transfers the ownership of a given token ID to another address Usage of this method is discouraged, use `safeTransferFrom` whenever possible Requires the msg sender to be the owner, approved, or operator",
        "params": {
          "_from": "current owner of the token",
          "_to": "address to receive the ownership of the given token ID",
          "_tokenId": "uint256 ID of the token to be transferred"
        }
      }
    }
  },
  "userdoc": {
    "methods": {}
  }
}