{
  "contractName": "LoanToken",
  "abi": [
    {
      "inputs": [],
      "stateMutability": "nonpayable",
      "type": "constructor"
    },
    {
      "anonymous": false,
      "inputs": [
        {
          "indexed": true,
          "internalType": "address",
          "name": "owner",
          "type": "address"
        },
        {
          "indexed": true,
          "internalType": "address",
          "name": "approved",
          "type": "address"
        },
        {
          "indexed": true,
          "internalType": "uint256",
          "name": "tokenId",
          "type": "uint256"
        }
      ],
      "name": "Approval",
      "type": "event"
    },
    {
      "anonymous": false,
      "inputs": [
        {
          "indexed": true,
          "internalType": "address",
          "name": "owner",
          "type": "address"
        },
        {
          "indexed": true,
          "internalType": "address",
          "name": "operator",
          "type": "address"
        },
        {
          "indexed": false,
          "internalType": "bool",
          "name": "approved",
          "type": "bool"
        }
      ],
      "name": "ApprovalForAll",
      "type": "event"
    },
    {
      "anonymous": false,
      "inputs": [
        {
          "indexed": true,
          "internalType": "address",
          "name": "from",
          "type": "address"
        },
        {
          "indexed": true,
          "internalType": "address",
          "name": "to",
          "type": "address"
        },
        {
          "indexed": true,
          "internalType": "uint256",
          "name": "tokenId",
          "type": "uint256"
        }
      ],
      "name": "Transfer",
      "type": "event"
    },
    {
      "inputs": [
        {
          "internalType": "address",
          "name": "to",
          "type": "address"
        },
        {
          "internalType": "uint256",
          "name": "tokenId",
          "type": "uint256"
        }
      ],
      "name": "approve",
      "outputs": [],
      "stateMutability": "nonpayable",
      "type": "function"
    },
    {
      "inputs": [
        {
          "internalType": "address",
          "name": "owner",
          "type": "address"
        }
      ],
      "name": "balanceOf",
      "outputs": [
        {
          "internalType": "uint256",
          "name": "",
          "type": "uint256"
        }
      ],
      "stateMutability": "view",
      "type": "function",
      "constant": true
    },
    {
      "inputs": [
        {
          "internalType": "uint256",
          "name": "tokenId",
          "type": "uint256"
        }
      ],
      "name": "getApproved",
      "outputs": [
        {
          "internalType": "address",
          "name": "",
          "type": "address"
        }
      ],
      "stateMutability": "view",
      "type": "function",
      "constant": true
    },
    {
      "inputs": [
        {
          "internalType": "address",
          "name": "owner",
          "type": "address"
        },
        {
          "internalType": "address",
          "name": "operator",
          "type": "address"
        }
      ],
      "name": "isApprovedForAll",
      "outputs": [
        {
          "internalType": "bool",
          "name": "",
          "type": "bool"
        }
      ],
      "stateMutability": "view",
      "type": "function",
      "constant": true
    },
    {
      "inputs": [],
      "name": "name",
      "outputs": [
        {
          "internalType": "string",
          "name": "",
          "type": "string"
        }
      ],
      "stateMutability": "view",
      "type": "function",
      "constant": true
    },
    {
      "inputs": [
        {
          "internalType": "uint256",
          "name": "tokenId",
          "type": "uint256"
        }
      ],
      "name": "ownerOf",
      "outputs": [
        {
          "internalType": "address",
          "name": "",
          "type": "address"
        }
      ],
      "stateMutability": "view",
      "type": "function",
      "constant": true
    },
    {
      "inputs": [
        {
          "internalType": "address",
          "name": "from",
          "type": "address"
        },
        {
          "internalType": "address",
          "name": "to",
          "type": "address"
        },
        {
          "internalType": "uint256",
          "name": "tokenId",
          "type": "uint256"
        }
      ],
      "name": "safeTransferFrom",
      "outputs": [],
      "stateMutability": "nonpayable",
      "type": "function"
    },
    {
      "inputs": [
        {
          "internalType": "address",
          "name": "from",
          "type": "address"
        },
        {
          "internalType": "address",
          "name": "to",
          "type": "address"
        },
        {
          "internalType": "uint256",
          "name": "tokenId",
          "type": "uint256"
        },
        {
          "internalType": "bytes",
          "name": "_data",
          "type": "bytes"
        }
      ],
      "name": "safeTransferFrom",
      "outputs": [],
      "stateMutability": "nonpayable",
      "type": "function"
    },
    {
      "inputs": [
        {
          "internalType": "address",
          "name": "operator",
          "type": "address"
        },
        {
          "internalType": "bool",
          "name": "approved",
          "type": "bool"
        }
      ],
      "name": "setApprovalForAll",
      "outputs": [],
      "stateMutability": "nonpayable",
      "type": "function"
    },
    {
      "inputs": [
        {
          "internalType": "bytes4",
          "name": "interfaceId",
          "type": "bytes4"
        }
      ],
      "name": "supportsInterface",
      "outputs": [
        {
          "internalType": "bool",
          "name": "",
          "type": "bool"
        }
      ],
      "stateMutability": "view",
      "type": "function",
      "constant": true
    },
    {
      "inputs": [],
      "name": "symbol",
      "outputs": [
        {
          "internalType": "string",
          "name": "",
          "type": "string"
        }
      ],
      "stateMutability": "view",
      "type": "function",
      "constant": true
    },
    {
      "inputs": [
        {
          "internalType": "uint256",
          "name": "tokenId",
          "type": "uint256"
        }
      ],
      "name": "tokenURI",
      "outputs": [
        {
          "internalType": "string",
          "name": "",
          "type": "string"
        }
      ],
      "stateMutability": "view",
      "type": "function",
      "constant": true
    },
    {
      "inputs": [
        {
          "internalType": "address",
          "name": "from",
          "type": "address"
        },
        {
          "internalType": "address",
          "name": "to",
          "type": "address"
        },
        {
          "internalType": "uint256",
          "name": "tokenId",
          "type": "uint256"
        }
      ],
      "name": "transferFrom",
      "outputs": [],
      "stateMutability": "nonpayable",
      "type": "function"
    },
    {
      "inputs": [
        {
          "internalType": "address",
          "name": "player",
          "type": "address"
        },
        {
          "internalType": "uint256",
          "name": "startTime",
          "type": "uint256"
        }
      ],
      "name": "awardItem",
      "outputs": [
        {
          "internalType": "uint256",
          "name": "",
          "type": "uint256"
        }
      ],
      "stateMutability": "nonpayable",
      "type": "function"
    },
    {
      "inputs": [],
      "name": "getItemId",
      "outputs": [
        {
          "internalType": "uint256",
          "name": "",
          "type": "uint256"
        }
      ],
      "stateMutability": "view",
      "type": "function",
      "constant": true
    },
    {
      "inputs": [],
      "name": "returnNum",
      "outputs": [
        {
          "internalType": "uint256",
          "name": "",
          "type": "uint256"
        }
      ],
      "stateMutability": "view",
      "type": "function",
      "constant": true
    },
    {
      "inputs": [
        {
          "internalType": "uint256",
          "name": "maturityTime",
          "type": "uint256"
        }
      ],
      "name": "checkEnd",
      "outputs": [
        {
          "internalType": "bool",
          "name": "",
          "type": "bool"
        }
      ],
      "stateMutability": "nonpayable",
      "type": "function"
    },
    {
      "inputs": [
        {
          "internalType": "address",
          "name": "sender",
          "type": "address"
        },
        {
          "internalType": "address",
          "name": "receiver",
          "type": "address"
        },
        {
          "internalType": "uint256",
          "name": "id",
          "type": "uint256"
        }
      ],
      "name": "transferItem",
      "outputs": [
        {
          "internalType": "address",
          "name": "",
          "type": "address"
        }
      ],
      "stateMutability": "nonpayable",
      "type": "function"
    },
    {
      "inputs": [
        {
          "internalType": "address",
          "name": "owner",
          "type": "address"
        },
        {
          "internalType": "address",
          "name": "operator",
          "type": "address"
        },
        {
          "internalType": "bool",
          "name": "approved",
          "type": "bool"
        }
      ],
      "name": "setApprove",
      "outputs": [],
      "stateMutability": "nonpayable",
      "type": "function"
    }
  ],
  "bytecode": "0x60806040523480156200001157600080fd5b506040518060400160405280600981526020017f4c6f616e546f6b656e00000000000000000000000000000000000000000000008152506040518060400160405280600381526020017f4c54430000000000000000000000000000000000000000000000000000000000815250816000908051906020019062000096929190620000b8565b508060019080519060200190620000af929190620000b8565b505050620001cd565b828054620000c69062000168565b90600052602060002090601f016020900481019282620000ea576000855562000136565b82601f106200010557805160ff191683800117855562000136565b8280016001018555821562000136579182015b828111156200013557825182559160200191906001019062000118565b5b50905062000145919062000149565b5090565b5b80821115620001645760008160009055506001016200014a565b5090565b600060028204905060018216806200018157607f821691505b602082108114156200019857620001976200019e565b5b50919050565b7f4e487b7100000000000000000000000000000000000000000000000000000000600052602260045260246000fd5b61281980620001dd6000396000f3fe608060405234801561001057600080fd5b50600436106101215760003560e01c80636352211e116100ad57806395d89b411161007157806395d89b4114610340578063a22cb4651461035e578063b88d4fde1461037a578063c87b56dd14610396578063e985e9c5146103c657610121565b80636352211e1461027657806365c74f5c146102a65780636ee77baa146102c257806370a08231146102e05780638f73bfed1461031057610121565b8063144c9d4c116100f4578063144c9d4c146101c057806323b872dd146101f057806342842e0e1461020c578063445f76d7146102285780636295c61a1461024657610121565b806301ffc9a71461012657806306fdde0314610156578063081812fc14610174578063095ea7b3146101a4575b600080fd5b610140600480360381019061013b9190611ae9565b6103f6565b60405161014d91906121e1565b60405180910390f35b61015e6104d8565b60405161016b91906121fc565b60405180910390f35b61018e60048036038101906101899190611b3b565b61056a565b60405161019b919061217a565b60405180910390f35b6101be60048036038101906101b99190611aad565b6105ef565b005b6101da60048036038101906101d59190611aad565b610707565b6040516101e791906123de565b60405180910390f35b61020a600480360381019061020591906119a7565b610746565b005b610226600480360381019061022191906119a7565b6107a6565b005b6102306107c6565b60405161023d91906123de565b60405180910390f35b610260600480360381019061025b91906119a7565b6107d0565b60405161026d919061217a565b60405180910390f35b610290600480360381019061028b9190611b3b565b6107e7565b60405161029d919061217a565b60405180910390f35b6102c060048036038101906102bb9190611958565b610899565b005b6102ca610903565b6040516102d791906123de565b60405180910390f35b6102fa60048036038101906102f591906118f3565b61090c565b60405161030791906123de565b60405180910390f35b61032a60048036038101906103259190611b3b565b6109c4565b60405161033791906121e1565b60405180910390f35b6103486109e0565b60405161035591906121fc565b60405180910390f35b61037860048036038101906103739190611a71565b610a72565b005b610394600480360381019061038f91906119f6565b610bf3565b005b6103b060048036038101906103ab9190611b3b565b610c55565b6040516103bd91906121fc565b60405180910390f35b6103e060048036038101906103db919061191c565b610cfc565b6040516103ed91906121e1565b60405180910390f35b60007f80ac58cd000000000000000000000000000000000000000000000000000000007bffffffffffffffffffffffffffffffffffffffffffffffffffffffff1916827bffffffffffffffffffffffffffffffffffffffffffffffffffffffff191614806104c157507f5b5e139f000000000000000000000000000000000000000000000000000000007bffffffffffffffffffffffffffffffffffffffffffffffffffffffff1916827bffffffffffffffffffffffffffffffffffffffffffffffffffffffff1916145b806104d157506104d082610d90565b5b9050919050565b6060600080546104e79061260e565b80601f01602080910402602001604051908101604052809291908181526020018280546105139061260e565b80156105605780601f1061053557610100808354040283529160200191610560565b820191906000526020600020905b81548152906001019060200180831161054357829003601f168201915b5050505050905090565b600061057582610dfa565b6105b4576040517f08c379a00000000000000000000000000000000000000000000000000000000081526004016105ab9061233e565b60405180910390fd5b6004600083815260200190815260200160002060009054906101000a900473ffffffffffffffffffffffffffffffffffffffff169050919050565b60006105fa826107e7565b90508073ffffffffffffffffffffffffffffffffffffffff168373ffffffffffffffffffffffffffffffffffffffff16141561066b576040517f08c379a00000000000000000000000000000000000000000000000000000000081526004016106629061239e565b60405180910390fd5b8073ffffffffffffffffffffffffffffffffffffffff1661068a610e66565b73ffffffffffffffffffffffffffffffffffffffff1614806106b957506106b8816106b3610e66565b610cfc565b5b6106f8576040517f08c379a00000000000000000000000000000000000000000000000000000000081526004016106ef906122be565b60405180910390fd5b6107028383610e6e565b505050565b600081421161071557600080fd5b61071f6006610f27565b6107296006610f3d565b60098190555061073b83600954610f4b565b600954905092915050565b610757610751610e66565b82611119565b610796576040517f08c379a000000000000000000000000000000000000000000000000000000000815260040161078d906123be565b60405180910390fd5b6107a18383836111f7565b505050565b6107c183838360405180602001604052806000815250610bf3565b505050565b6000600954905090565b60006107dd848484610746565b8290509392505050565b6000806002600084815260200190815260200160002060009054906101000a900473ffffffffffffffffffffffffffffffffffffffff169050600073ffffffffffffffffffffffffffffffffffffffff168173ffffffffffffffffffffffffffffffffffffffff161415610890576040517f08c379a0000000000000000000000000000000000000000000000000000000008152600401610887906122fe565b60405180910390fd5b80915050919050565b8173ffffffffffffffffffffffffffffffffffffffff168373ffffffffffffffffffffffffffffffffffffffff167f17307eab39ab6107e8899845ad3d59bd9653f200f220920489ca2b5937696c31836040516108f691906121e1565b60405180910390a3505050565b60006005905090565b60008073ffffffffffffffffffffffffffffffffffffffff168273ffffffffffffffffffffffffffffffffffffffff16141561097d576040517f08c379a0000000000000000000000000000000000000000000000000000000008152600401610974906122de565b60405180910390fd5b600360008373ffffffffffffffffffffffffffffffffffffffff1673ffffffffffffffffffffffffffffffffffffffff168152602001908152602001600020549050919050565b60008142106109d657600190506109db565b600090505b919050565b6060600180546109ef9061260e565b80601f0160208091040260200160405190810160405280929190818152602001828054610a1b9061260e565b8015610a685780601f10610a3d57610100808354040283529160200191610a68565b820191906000526020600020905b815481529060010190602001808311610a4b57829003601f168201915b5050505050905090565b610a7a610e66565b73ffffffffffffffffffffffffffffffffffffffff168273ffffffffffffffffffffffffffffffffffffffff161415610ae8576040517f08c379a0000000000000000000000000000000000000000000000000000000008152600401610adf9061227e565b60405180910390fd5b8060056000610af5610e66565b73ffffffffffffffffffffffffffffffffffffffff1673ffffffffffffffffffffffffffffffffffffffff16815260200190815260200160002060008473ffffffffffffffffffffffffffffffffffffffff1673ffffffffffffffffffffffffffffffffffffffff16815260200190815260200160002060006101000a81548160ff0219169083151502179055508173ffffffffffffffffffffffffffffffffffffffff16610ba2610e66565b73ffffffffffffffffffffffffffffffffffffffff167f17307eab39ab6107e8899845ad3d59bd9653f200f220920489ca2b5937696c3183604051610be791906121e1565b60405180910390a35050565b610c04610bfe610e66565b83611119565b610c43576040517f08c379a0000000000000000000000000000000000000000000000000000000008152600401610c3a906123be565b60405180910390fd5b610c4f84848484611453565b50505050565b6060610c6082610dfa565b610c9f576040517f08c379a0000000000000000000000000000000000000000000000000000000008152600401610c969061237e565b60405180910390fd5b6000610ca96114af565b90506000815111610cc95760405180602001604052806000815250610cf4565b80610cd3846114c6565b604051602001610ce4929190612156565b6040516020818303038152906040525b915050919050565b6000600560008473ffffffffffffffffffffffffffffffffffffffff1673ffffffffffffffffffffffffffffffffffffffff16815260200190815260200160002060008373ffffffffffffffffffffffffffffffffffffffff1673ffffffffffffffffffffffffffffffffffffffff16815260200190815260200160002060009054906101000a900460ff16905092915050565b60007f01ffc9a7000000000000000000000000000000000000000000000000000000007bffffffffffffffffffffffffffffffffffffffffffffffffffffffff1916827bffffffffffffffffffffffffffffffffffffffffffffffffffffffff1916149050919050565b60008073ffffffffffffffffffffffffffffffffffffffff166002600084815260200190815260200160002060009054906101000a900473ffffffffffffffffffffffffffffffffffffffff1673ffffffffffffffffffffffffffffffffffffffff1614159050919050565b600033905090565b816004600083815260200190815260200160002060006101000a81548173ffffffffffffffffffffffffffffffffffffffff021916908373ffffffffffffffffffffffffffffffffffffffff160217905550808273ffffffffffffffffffffffffffffffffffffffff16610ee1836107e7565b73ffffffffffffffffffffffffffffffffffffffff167f8c5be1e5ebec7d5bd14f71427d1e84f3dd0314c0f7b2291e5b200ac8c7c3b92560405160405180910390a45050565b6001816000016000828254019250508190555050565b600081600001549050919050565b600073ffffffffffffffffffffffffffffffffffffffff168273ffffffffffffffffffffffffffffffffffffffff161415610fbb576040517f08c379a0000000000000000000000000000000000000000000000000000000008152600401610fb29061231e565b60405180910390fd5b610fc481610dfa565b15611004576040517f08c379a0000000000000000000000000000000000000000000000000000000008152600401610ffb9061223e565b60405180910390fd5b61101060008383611673565b6001600360008473ffffffffffffffffffffffffffffffffffffffff1673ffffffffffffffffffffffffffffffffffffffff1681526020019081526020016000206000828254611060919061249d565b92505081905550816002600083815260200190815260200160002060006101000a81548173ffffffffffffffffffffffffffffffffffffffff021916908373ffffffffffffffffffffffffffffffffffffffff160217905550808273ffffffffffffffffffffffffffffffffffffffff16600073ffffffffffffffffffffffffffffffffffffffff167fddf252ad1be2c89b69c2b068fc378daa952ba7f163c4a11628f55a4df523b3ef60405160405180910390a45050565b600061112482610dfa565b611163576040517f08c379a000000000000000000000000000000000000000000000000000000000815260040161115a9061229e565b60405180910390fd5b600061116e836107e7565b90508073ffffffffffffffffffffffffffffffffffffffff168473ffffffffffffffffffffffffffffffffffffffff1614806111dd57508373ffffffffffffffffffffffffffffffffffffffff166111c58461056a565b73ffffffffffffffffffffffffffffffffffffffff16145b806111ee57506111ed8185610cfc565b5b91505092915050565b8273ffffffffffffffffffffffffffffffffffffffff16611217826107e7565b73ffffffffffffffffffffffffffffffffffffffff161461126d576040517f08c379a00000000000000000000000000000000000000000000000000000000081526004016112649061235e565b60405180910390fd5b600073ffffffffffffffffffffffffffffffffffffffff168273ffffffffffffffffffffffffffffffffffffffff1614156112dd576040517f08c379a00000000000000000000000000000000000000000000000000000000081526004016112d49061225e565b60405180910390fd5b6112e8838383611673565b6112f3600082610e6e565b6001600360008573ffffffffffffffffffffffffffffffffffffffff1673ffffffffffffffffffffffffffffffffffffffff16815260200190815260200160002060008282546113439190612524565b925050819055506001600360008473ffffffffffffffffffffffffffffffffffffffff1673ffffffffffffffffffffffffffffffffffffffff168152602001908152602001600020600082825461139a919061249d565b92505081905550816002600083815260200190815260200160002060006101000a81548173ffffffffffffffffffffffffffffffffffffffff021916908373ffffffffffffffffffffffffffffffffffffffff160217905550808273ffffffffffffffffffffffffffffffffffffffff168473ffffffffffffffffffffffffffffffffffffffff167fddf252ad1be2c89b69c2b068fc378daa952ba7f163c4a11628f55a4df523b3ef60405160405180910390a4505050565b61145e8484846111f7565b61146a84848484611678565b6114a9576040517f08c379a00000000000000000000000000000000000000000000000000000000081526004016114a09061221e565b60405180910390fd5b50505050565b606060405180602001604052806000815250905090565b6060600082141561150e576040518060400160405280600181526020017f3000000000000000000000000000000000000000000000000000000000000000815250905061166e565b600082905060005b6000821461154057808061152990612640565b915050600a8261153991906124f3565b9150611516565b60008167ffffffffffffffff811115611582577f4e487b7100000000000000000000000000000000000000000000000000000000600052604160045260246000fd5b6040519080825280601f01601f1916602001820160405280156115b45781602001600182028036833780820191505090505b5090505b60008514611667576001826115cd9190612524565b9150600a856115dc9190612689565b60306115e8919061249d565b60f81b818381518110611624577f4e487b7100000000000000000000000000000000000000000000000000000000600052603260045260246000fd5b60200101907effffffffffffffffffffffffffffffffffffffffffffffffffffffffffffff1916908160001a905350600a8561166091906124f3565b94506115b8565b8093505050505b919050565b505050565b60006116998473ffffffffffffffffffffffffffffffffffffffff1661180f565b15611802578373ffffffffffffffffffffffffffffffffffffffff1663150b7a026116c2610e66565b8786866040518563ffffffff1660e01b81526004016116e49493929190612195565b602060405180830381600087803b1580156116fe57600080fd5b505af192505050801561172f57506040513d601f19601f8201168201806040525081019061172c9190611b12565b60015b6117b2573d806000811461175f576040519150601f19603f3d011682016040523d82523d6000602084013e611764565b606091505b506000815114156117aa576040517f08c379a00000000000000000000000000000000000000000000000000000000081526004016117a19061221e565b60405180910390fd5b805181602001fd5b63150b7a0260e01b7bffffffffffffffffffffffffffffffffffffffffffffffffffffffff1916817bffffffffffffffffffffffffffffffffffffffffffffffffffffffff191614915050611807565b600190505b949350505050565b600080823b905060008111915050919050565b60006118356118308461242a565b6123f9565b90508281526020810184848401111561184d57600080fd5b6118588482856125cc565b509392505050565b60008135905061186f81612787565b92915050565b6000813590506118848161279e565b92915050565b600081359050611899816127b5565b92915050565b6000815190506118ae816127b5565b92915050565b600082601f8301126118c557600080fd5b81356118d5848260208601611822565b91505092915050565b6000813590506118ed816127cc565b92915050565b60006020828403121561190557600080fd5b600061191384828501611860565b91505092915050565b6000806040838503121561192f57600080fd5b600061193d85828601611860565b925050602061194e85828601611860565b9150509250929050565b60008060006060848603121561196d57600080fd5b600061197b86828701611860565b935050602061198c86828701611860565b925050604061199d86828701611875565b9150509250925092565b6000806000606084860312156119bc57600080fd5b60006119ca86828701611860565b93505060206119db86828701611860565b92505060406119ec868287016118de565b9150509250925092565b60008060008060808587031215611a0c57600080fd5b6000611a1a87828801611860565b9450506020611a2b87828801611860565b9350506040611a3c878288016118de565b925050606085013567ffffffffffffffff811115611a5957600080fd5b611a65878288016118b4565b91505092959194509250565b60008060408385031215611a8457600080fd5b6000611a9285828601611860565b9250506020611aa385828601611875565b9150509250929050565b60008060408385031215611ac057600080fd5b6000611ace85828601611860565b9250506020611adf858286016118de565b9150509250929050565b600060208284031215611afb57600080fd5b6000611b098482850161188a565b91505092915050565b600060208284031215611b2457600080fd5b6000611b328482850161189f565b91505092915050565b600060208284031215611b4d57600080fd5b6000611b5b848285016118de565b91505092915050565b611b6d81612558565b82525050565b611b7c8161256a565b82525050565b6000611b8d8261245a565b611b978185612470565b9350611ba78185602086016125db565b611bb081612776565b840191505092915050565b6000611bc682612465565b611bd08185612481565b9350611be08185602086016125db565b611be981612776565b840191505092915050565b6000611bff82612465565b611c098185612492565b9350611c198185602086016125db565b80840191505092915050565b6000611c32603283612481565b91507f4552433732313a207472616e7366657220746f206e6f6e20455243373231526560008301527f63656976657220696d706c656d656e74657200000000000000000000000000006020830152604082019050919050565b6000611c98601c83612481565b91507f4552433732313a20746f6b656e20616c7265616479206d696e746564000000006000830152602082019050919050565b6000611cd8602483612481565b91507f4552433732313a207472616e7366657220746f20746865207a65726f2061646460008301527f72657373000000000000000000000000000000000000000000000000000000006020830152604082019050919050565b6000611d3e601983612481565b91507f4552433732313a20617070726f766520746f2063616c6c6572000000000000006000830152602082019050919050565b6000611d7e602c83612481565b91507f4552433732313a206f70657261746f7220717565727920666f72206e6f6e657860008301527f697374656e7420746f6b656e00000000000000000000000000000000000000006020830152604082019050919050565b6000611de4603883612481565b91507f4552433732313a20617070726f76652063616c6c6572206973206e6f74206f7760008301527f6e6572206e6f7220617070726f76656420666f7220616c6c00000000000000006020830152604082019050919050565b6000611e4a602a83612481565b91507f4552433732313a2062616c616e636520717565727920666f7220746865207a6560008301527f726f2061646472657373000000000000000000000000000000000000000000006020830152604082019050919050565b6000611eb0602983612481565b91507f4552433732313a206f776e657220717565727920666f72206e6f6e657869737460008301527f656e7420746f6b656e00000000000000000000000000000000000000000000006020830152604082019050919050565b6000611f16602083612481565b91507f4552433732313a206d696e7420746f20746865207a65726f20616464726573736000830152602082019050919050565b6000611f56602c83612481565b91507f4552433732313a20617070726f76656420717565727920666f72206e6f6e657860008301527f697374656e7420746f6b656e00000000000000000000000000000000000000006020830152604082019050919050565b6000611fbc602983612481565b91507f4552433732313a207472616e73666572206f6620746f6b656e2074686174206960008301527f73206e6f74206f776e00000000000000000000000000000000000000000000006020830152604082019050919050565b6000612022602f83612481565b91507f4552433732314d657461646174613a2055524920717565727920666f72206e6f60008301527f6e6578697374656e7420746f6b656e00000000000000000000000000000000006020830152604082019050919050565b6000612088602183612481565b91507f4552433732313a20617070726f76616c20746f2063757272656e74206f776e6560008301527f72000000000000000000000000000000000000000000000000000000000000006020830152604082019050919050565b60006120ee603183612481565b91507f4552433732313a207472616e736665722063616c6c6572206973206e6f74206f60008301527f776e6572206e6f7220617070726f7665640000000000000000000000000000006020830152604082019050919050565b612150816125c2565b82525050565b60006121628285611bf4565b915061216e8284611bf4565b91508190509392505050565b600060208201905061218f6000830184611b64565b92915050565b60006080820190506121aa6000830187611b64565b6121b76020830186611b64565b6121c46040830185612147565b81810360608301526121d68184611b82565b905095945050505050565b60006020820190506121f66000830184611b73565b92915050565b600060208201905081810360008301526122168184611bbb565b905092915050565b6000602082019050818103600083015261223781611c25565b9050919050565b6000602082019050818103600083015261225781611c8b565b9050919050565b6000602082019050818103600083015261227781611ccb565b9050919050565b6000602082019050818103600083015261229781611d31565b9050919050565b600060208201905081810360008301526122b781611d71565b9050919050565b600060208201905081810360008301526122d781611dd7565b9050919050565b600060208201905081810360008301526122f781611e3d565b9050919050565b6000602082019050818103600083015261231781611ea3565b9050919050565b6000602082019050818103600083015261233781611f09565b9050919050565b6000602082019050818103600083015261235781611f49565b9050919050565b6000602082019050818103600083015261237781611faf565b9050919050565b6000602082019050818103600083015261239781612015565b9050919050565b600060208201905081810360008301526123b78161207b565b9050919050565b600060208201905081810360008301526123d7816120e1565b9050919050565b60006020820190506123f36000830184612147565b92915050565b6000604051905081810181811067ffffffffffffffff821117156124205761241f612747565b5b8060405250919050565b600067ffffffffffffffff82111561244557612444612747565b5b601f19601f8301169050602081019050919050565b600081519050919050565b600081519050919050565b600082825260208201905092915050565b600082825260208201905092915050565b600081905092915050565b60006124a8826125c2565b91506124b3836125c2565b9250827fffffffffffffffffffffffffffffffffffffffffffffffffffffffffffffffff038211156124e8576124e76126ba565b5b828201905092915050565b60006124fe826125c2565b9150612509836125c2565b925082612519576125186126e9565b5b828204905092915050565b600061252f826125c2565b915061253a836125c2565b92508282101561254d5761254c6126ba565b5b828203905092915050565b6000612563826125a2565b9050919050565b60008115159050919050565b60007fffffffff0000000000000000000000000000000000000000000000000000000082169050919050565b600073ffffffffffffffffffffffffffffffffffffffff82169050919050565b6000819050919050565b82818337600083830152505050565b60005b838110156125f95780820151818401526020810190506125de565b83811115612608576000848401525b50505050565b6000600282049050600182168061262657607f821691505b6020821081141561263a57612639612718565b5b50919050565b600061264b826125c2565b91507fffffffffffffffffffffffffffffffffffffffffffffffffffffffffffffffff82141561267e5761267d6126ba565b5b600182019050919050565b6000612694826125c2565b915061269f836125c2565b9250826126af576126ae6126e9565b5b828206905092915050565b7f4e487b7100000000000000000000000000000000000000000000000000000000600052601160045260246000fd5b7f4e487b7100000000000000000000000000000000000000000000000000000000600052601260045260246000fd5b7f4e487b7100000000000000000000000000000000000000000000000000000000600052602260045260246000fd5b7f4e487b7100000000000000000000000000000000000000000000000000000000600052604160045260246000fd5b6000601f19601f8301169050919050565b61279081612558565b811461279b57600080fd5b50565b6127a78161256a565b81146127b257600080fd5b50565b6127be81612576565b81146127c957600080fd5b50565b6127d5816125c2565b81146127e057600080fd5b5056fea2646970667358221220c414050ca843fc8aea922769871cb79b761a97733d101eb4fd7afef06499995064736f6c63430008000033",
  "immutableReferences": {},
  "source": "pragma solidity ^0.8.0;\r\n\r\n//import \"zeppelin-solidity/contracts/token/ERC721/ERC721Token.sol\";\r\n\r\nimport \"openzeppelin-solidity/contracts/token/ERC721/ERC721.sol\";\r\nimport \"openzeppelin-solidity/contracts/utils/Counters.sol\";\r\nimport \"openzeppelin-solidity/contracts/token/ERC721/IERC721Receiver.sol\";\r\n\r\ncontract LoanToken is ERC721 {\r\n    //    constructor () ERC721Token (\" LoanToken \",\" LTC \") public {\r\n    //    }\r\n    //\r\n    //    function mint ( address _company , uint256 _tokenId )\r\n    //    public {\r\n    //        super . _mint ( _company , _tokenId );\r\n    //    }\r\n    using Counters for Counters.Counter;\r\n    Counters.Counter private _tokenIds;\r\n    string BName;\r\n    string BSymbol;\r\n    uint256 newItemId;\r\n\r\n    constructor() public ERC721(\"LoanToken\", \"LTC\") {}\r\n\r\n    function awardItem(address player, uint256 startTime) public returns (uint256){\r\n        require(block.timestamp > startTime);\r\n        _tokenIds.increment();\r\n\r\n        newItemId = _tokenIds.current();\r\n        _mint(player, newItemId);\r\n        //_setTokenURI(newItemId, tokenURI);\r\n        return newItemId;\r\n    }\r\n\r\n    function getItemId() public view returns(uint256){\r\n        return newItemId;\r\n    }\r\n\r\n    function returnNum() public view returns(uint256){\r\n        return 5;\r\n    }\r\n\r\n    function checkEnd(uint256 maturityTime) public returns(bool){\r\n        if(block.timestamp >= maturityTime){\r\n            return true;\r\n        }else{\r\n            return false;\r\n        }\r\n    }\r\n\r\n    function transferItem(address sender, address receiver, uint256 id) public returns (address){\r\n            //isApprovedForAll(receiver, true);\r\n            transferFrom(sender, receiver, id);\r\n        return receiver;\r\n    }\r\n\r\n    function setApprove(address owner, address operator, bool approved) public{\r\n            ApprovalForAll(owner, operator, approved);\r\n    }\r\n}\r\n\r\n//contract LoanContract is IERC721Receiver {\r\n////    LoanToken token;\r\n////\r\n////    constructor() public{\r\n////        LoanToken newToken = new LoanToken();\r\n////    }\r\n//    function onERC721Received(address, address, uint256, bytes memory) public virtual override returns (bytes4) {\r\n//        return this.onERC721Received.selector;\r\n//    }\r\n//\r\n//    function getIssuer() public returns (address){\r\n//        return msg.sender;\r\n//    }\r\n//\r\n//    function createToken(LoanToken token, address sender) public{\r\n//        token.awardItem(sender);\r\n//    }\r\n//\r\n//    function transferToken(LoanToken token, address sender, address receiver, uint256 id) public{\r\n//        token.transferItem(sender, receiver, id);\r\n//    }\r\n//}\r\n",
  "sourcePath": "E:/myproject/contracts/LoanToken.sol",
  "compiler": {
    "name": "solc",
    "version": "0.8.0+commit.c7dfd78e.Emscripten.clang"
  },
  "schemaVersion": "3.4.1",
  "updatedAt": "2021-08-10T01:47:50.979Z",
  "networkType": "ethereum",
  "devdoc": {
    "kind": "dev",
    "methods": {
      "approve(address,uint256)": {
        "details": "See {IERC721-approve}."
      },
      "balanceOf(address)": {
        "details": "See {IERC721-balanceOf}."
      },
      "getApproved(uint256)": {
        "details": "See {IERC721-getApproved}."
      },
      "isApprovedForAll(address,address)": {
        "details": "See {IERC721-isApprovedForAll}."
      },
      "name()": {
        "details": "See {IERC721Metadata-name}."
      },
      "ownerOf(uint256)": {
        "details": "See {IERC721-ownerOf}."
      },
      "safeTransferFrom(address,address,uint256)": {
        "details": "See {IERC721-safeTransferFrom}."
      },
      "safeTransferFrom(address,address,uint256,bytes)": {
        "details": "See {IERC721-safeTransferFrom}."
      },
      "setApprovalForAll(address,bool)": {
        "details": "See {IERC721-setApprovalForAll}."
      },
      "supportsInterface(bytes4)": {
        "details": "See {IERC165-supportsInterface}."
      },
      "symbol()": {
        "details": "See {IERC721Metadata-symbol}."
      },
      "tokenURI(uint256)": {
        "details": "See {IERC721Metadata-tokenURI}."
      },
      "transferFrom(address,address,uint256)": {
        "details": "See {IERC721-transferFrom}."
      }
    },
    "version": 1
  },
  "userdoc": {
    "kind": "user",
    "methods": {},
    "version": 1
  }
}