{
  "contractName": "NFToken",
  "abi": [
    {
      "inputs": [],
      "payable": false,
      "stateMutability": "nonpayable",
      "type": "constructor"
    },
    {
      "anonymous": false,
      "inputs": [
        {
          "indexed": true,
          "internalType": "address",
          "name": "_owner",
          "type": "address"
        },
        {
          "indexed": true,
          "internalType": "address",
          "name": "_approved",
          "type": "address"
        },
        {
          "indexed": true,
          "internalType": "uint256",
          "name": "_tokenId",
          "type": "uint256"
        }
      ],
      "name": "Approval",
      "type": "event"
    },
    {
      "anonymous": false,
      "inputs": [
        {
          "indexed": true,
          "internalType": "address",
          "name": "_owner",
          "type": "address"
        },
        {
          "indexed": true,
          "internalType": "address",
          "name": "_operator",
          "type": "address"
        },
        {
          "indexed": false,
          "internalType": "bool",
          "name": "_approved",
          "type": "bool"
        }
      ],
      "name": "ApprovalForAll",
      "type": "event"
    },
    {
      "anonymous": false,
      "inputs": [
        {
          "indexed": true,
          "internalType": "address",
          "name": "_from",
          "type": "address"
        },
        {
          "indexed": true,
          "internalType": "address",
          "name": "_to",
          "type": "address"
        },
        {
          "indexed": true,
          "internalType": "uint256",
          "name": "_tokenId",
          "type": "uint256"
        }
      ],
      "name": "Transfer",
      "type": "event"
    },
    {
      "constant": true,
      "inputs": [
        {
          "internalType": "uint256",
          "name": "",
          "type": "uint256"
        }
      ],
      "name": "_approvals",
      "outputs": [
        {
          "internalType": "address",
          "name": "",
          "type": "address"
        }
      ],
      "payable": false,
      "stateMutability": "view",
      "type": "function"
    },
    {
      "constant": true,
      "inputs": [
        {
          "internalType": "address",
          "name": "",
          "type": "address"
        },
        {
          "internalType": "address",
          "name": "",
          "type": "address"
        }
      ],
      "name": "_approvalsForAll",
      "outputs": [
        {
          "internalType": "bool",
          "name": "",
          "type": "bool"
        }
      ],
      "payable": false,
      "stateMutability": "view",
      "type": "function"
    },
    {
      "constant": true,
      "inputs": [
        {
          "internalType": "address",
          "name": "",
          "type": "address"
        }
      ],
      "name": "_numTokenPerson",
      "outputs": [
        {
          "internalType": "uint256",
          "name": "",
          "type": "uint256"
        }
      ],
      "payable": false,
      "stateMutability": "view",
      "type": "function"
    },
    {
      "constant": true,
      "inputs": [
        {
          "internalType": "uint256",
          "name": "",
          "type": "uint256"
        }
      ],
      "name": "_owner",
      "outputs": [
        {
          "internalType": "address",
          "name": "",
          "type": "address"
        }
      ],
      "payable": false,
      "stateMutability": "view",
      "type": "function"
    },
    {
      "constant": true,
      "inputs": [],
      "name": "decimals",
      "outputs": [
        {
          "internalType": "uint8",
          "name": "",
          "type": "uint8"
        }
      ],
      "payable": false,
      "stateMutability": "view",
      "type": "function"
    },
    {
      "constant": true,
      "inputs": [],
      "name": "name",
      "outputs": [
        {
          "internalType": "string",
          "name": "",
          "type": "string"
        }
      ],
      "payable": false,
      "stateMutability": "view",
      "type": "function"
    },
    {
      "constant": true,
      "inputs": [],
      "name": "symbol",
      "outputs": [
        {
          "internalType": "string",
          "name": "",
          "type": "string"
        }
      ],
      "payable": false,
      "stateMutability": "view",
      "type": "function"
    },
    {
      "constant": false,
      "inputs": [
        {
          "internalType": "address",
          "name": "_to",
          "type": "address"
        },
        {
          "internalType": "uint256",
          "name": "_amount",
          "type": "uint256"
        }
      ],
      "name": "transfer",
      "outputs": [],
      "payable": true,
      "stateMutability": "payable",
      "type": "function"
    },
    {
      "constant": true,
      "inputs": [],
      "name": "totalSupply",
      "outputs": [
        {
          "internalType": "uint256",
          "name": "",
          "type": "uint256"
        }
      ],
      "payable": false,
      "stateMutability": "view",
      "type": "function"
    },
    {
      "constant": true,
      "inputs": [
        {
          "internalType": "uint256",
          "name": "_tokenId",
          "type": "uint256"
        }
      ],
      "name": "ownerOf",
      "outputs": [
        {
          "internalType": "address",
          "name": "",
          "type": "address"
        }
      ],
      "payable": false,
      "stateMutability": "view",
      "type": "function"
    },
    {
      "constant": true,
      "inputs": [
        {
          "internalType": "address",
          "name": "owner",
          "type": "address"
        }
      ],
      "name": "balanceOf",
      "outputs": [
        {
          "internalType": "uint256",
          "name": "",
          "type": "uint256"
        }
      ],
      "payable": false,
      "stateMutability": "view",
      "type": "function"
    },
    {
      "constant": false,
      "inputs": [
        {
          "internalType": "address",
          "name": "_to",
          "type": "address"
        },
        {
          "internalType": "uint256",
          "name": "_tokenId",
          "type": "uint256"
        }
      ],
      "name": "approve",
      "outputs": [],
      "payable": true,
      "stateMutability": "payable",
      "type": "function"
    },
    {
      "constant": true,
      "inputs": [
        {
          "internalType": "uint256",
          "name": "_tokenId",
          "type": "uint256"
        }
      ],
      "name": "getApproved",
      "outputs": [
        {
          "internalType": "address",
          "name": "",
          "type": "address"
        }
      ],
      "payable": false,
      "stateMutability": "view",
      "type": "function"
    },
    {
      "constant": false,
      "inputs": [
        {
          "internalType": "address",
          "name": "_operator",
          "type": "address"
        },
        {
          "internalType": "bool",
          "name": "_approved",
          "type": "bool"
        }
      ],
      "name": "setApprovalForAll",
      "outputs": [],
      "payable": false,
      "stateMutability": "nonpayable",
      "type": "function"
    },
    {
      "constant": true,
      "inputs": [
        {
          "internalType": "address",
          "name": "owner",
          "type": "address"
        },
        {
          "internalType": "address",
          "name": "_operator",
          "type": "address"
        }
      ],
      "name": "isApprovedForAll",
      "outputs": [
        {
          "internalType": "bool",
          "name": "",
          "type": "bool"
        }
      ],
      "payable": false,
      "stateMutability": "view",
      "type": "function"
    },
    {
      "constant": false,
      "inputs": [
        {
          "internalType": "address",
          "name": "_from",
          "type": "address"
        },
        {
          "internalType": "address",
          "name": "_to",
          "type": "address"
        },
        {
          "internalType": "uint256",
          "name": "_tokenId",
          "type": "uint256"
        }
      ],
      "name": "transferFrom",
      "outputs": [],
      "payable": true,
      "stateMutability": "payable",
      "type": "function"
    }
  ],
  "bytecode": "0x608060405234801561001057600080fd5b50612710600160003373ffffffffffffffffffffffffffffffffffffffff1673ffffffffffffffffffffffffffffffffffffffff16815260200190815260200160002081905550611143806100666000396000f3fe6080604052600436106100f35760003560e01c806370a082311161008a578063a8fa5a0f11610059578063a8fa5a0f146105ec578063a9059cbb14610651578063c2a9a6d51461069f578063e985e9c51461071a576100f3565b806370a082311461041f57806383d1c66f1461048457806395d89b41146104ff578063a22cb4651461058f576100f3565b806323b872dd116100c657806323b872dd1461027c578063313ce567146102ea5780636352211e1461031b57806366edd14914610396576100f3565b806306fdde03146100f8578063081812fc14610188578063095ea7b31461020357806318160ddd14610251575b600080fd5b34801561010457600080fd5b5061010d6107a3565b6040518080602001828103825283818151815260200191508051906020019080838360005b8381101561014d578082015181840152602081019050610132565b50505050905090810190601f16801561017a5780820380516001836020036101000a031916815260200191505b509250505060405180910390f35b34801561019457600080fd5b506101c1600480360360208110156101ab57600080fd5b81019080803590602001909291905050506107e0565b604051808273ffffffffffffffffffffffffffffffffffffffff1673ffffffffffffffffffffffffffffffffffffffff16815260200191505060405180910390f35b61024f6004803603604081101561021957600080fd5b81019080803573ffffffffffffffffffffffffffffffffffffffff1690602001909291908035906020019092919050505061081d565b005b34801561025d57600080fd5b50610266610977565b6040518082815260200191505060405180910390f35b6102e86004803603606081101561029257600080fd5b81019080803573ffffffffffffffffffffffffffffffffffffffff169060200190929190803573ffffffffffffffffffffffffffffffffffffffff16906020019092919080359060200190929190505050610982565b005b3480156102f657600080fd5b506102ff610c03565b604051808260ff1660ff16815260200191505060405180910390f35b34801561032757600080fd5b506103546004803603602081101561033e57600080fd5b8101908080359060200190929190505050610c08565b604051808273ffffffffffffffffffffffffffffffffffffffff1673ffffffffffffffffffffffffffffffffffffffff16815260200191505060405180910390f35b3480156103a257600080fd5b50610405600480360360408110156103b957600080fd5b81019080803573ffffffffffffffffffffffffffffffffffffffff169060200190929190803573ffffffffffffffffffffffffffffffffffffffff169060200190929190505050610cec565b604051808215151515815260200191505060405180910390f35b34801561042b57600080fd5b5061046e6004803603602081101561044257600080fd5b81019080803573ffffffffffffffffffffffffffffffffffffffff169060200190929190505050610d1b565b6040518082815260200191505060405180910390f35b34801561049057600080fd5b506104bd600480360360208110156104a757600080fd5b8101908080359060200190929190505050610d64565b604051808273ffffffffffffffffffffffffffffffffffffffff1673ffffffffffffffffffffffffffffffffffffffff16815260200191505060405180910390f35b34801561050b57600080fd5b50610514610d97565b6040518080602001828103825283818151815260200191508051906020019080838360005b83811015610554578082015181840152602081019050610539565b50505050905090810190601f1680156105815780820380516001836020036101000a031916815260200191505b509250505060405180910390f35b34801561059b57600080fd5b506105ea600480360360408110156105b257600080fd5b81019080803573ffffffffffffffffffffffffffffffffffffffff169060200190929190803515159060200190929190505050610dd4565b005b3480156105f857600080fd5b5061063b6004803603602081101561060f57600080fd5b81019080803573ffffffffffffffffffffffffffffffffffffffff169060200190929190505050610ed5565b6040518082815260200191505060405180910390f35b61069d6004803603604081101561066757600080fd5b81019080803573ffffffffffffffffffffffffffffffffffffffff16906020019092919080359060200190929190505050610eed565b005b3480156106ab57600080fd5b506106d8600480360360208110156106c257600080fd5b8101908080359060200190929190505050611047565b604051808273ffffffffffffffffffffffffffffffffffffffff1673ffffffffffffffffffffffffffffffffffffffff16815260200191505060405180910390f35b34801561072657600080fd5b506107896004803603604081101561073d57600080fd5b81019080803573ffffffffffffffffffffffffffffffffffffffff169060200190929190803573ffffffffffffffffffffffffffffffffffffffff16906020019092919050505061107a565b604051808215151515815260200191505060405180910390f35b60606040518060400160405280600781526020017f4e46546f6b656e00000000000000000000000000000000000000000000000000815250905090565b60006002600083815260200190815260200160002060009054906101000a900473ffffffffffffffffffffffffffffffffffffffff169050919050565b600080600083815260200190815260200160002060009054906101000a900473ffffffffffffffffffffffffffffffffffffffff1690503373ffffffffffffffffffffffffffffffffffffffff168173ffffffffffffffffffffffffffffffffffffffff161461088c57600080fd5b8273ffffffffffffffffffffffffffffffffffffffff168173ffffffffffffffffffffffffffffffffffffffff1614156108c557600080fd5b826002600084815260200190815260200160002060006101000a81548173ffffffffffffffffffffffffffffffffffffffff021916908373ffffffffffffffffffffffffffffffffffffffff160217905550818373ffffffffffffffffffffffffffffffffffffffff168273ffffffffffffffffffffffffffffffffffffffff167f8c5be1e5ebec7d5bd14f71427d1e84f3dd0314c0f7b2291e5b200ac8c7c3b92560405160405180910390a4505050565b600062989680905090565b600073ffffffffffffffffffffffffffffffffffffffff168373ffffffffffffffffffffffffffffffffffffffff1614156109bc57600080fd5b600073ffffffffffffffffffffffffffffffffffffffff168273ffffffffffffffffffffffffffffffffffffffff1614156109f657600080fd5b8273ffffffffffffffffffffffffffffffffffffffff1660008083815260200190815260200160002060009054906101000a900473ffffffffffffffffffffffffffffffffffffffff1673ffffffffffffffffffffffffffffffffffffffff1614610a6057600080fd5b600160008473ffffffffffffffffffffffffffffffffffffffff1673ffffffffffffffffffffffffffffffffffffffff1681526020019081526020016000206000815480929190600190039190505550600160008373ffffffffffffffffffffffffffffffffffffffff1673ffffffffffffffffffffffffffffffffffffffff168152602001908152602001600020600081548092919060010191905055508160008083815260200190815260200160002060006101000a81548173ffffffffffffffffffffffffffffffffffffffff021916908373ffffffffffffffffffffffffffffffffffffffff16021790555060006002600083815260200190815260200160002060006101000a81548173ffffffffffffffffffffffffffffffffffffffff021916908373ffffffffffffffffffffffffffffffffffffffff160217905550808273ffffffffffffffffffffffffffffffffffffffff168473ffffffffffffffffffffffffffffffffffffffff167fddf252ad1be2c89b69c2b068fc378daa952ba7f163c4a11628f55a4df523b3ef60405160405180910390a4505050565b600381565b60008060008084815260200190815260200160002060009054906101000a900473ffffffffffffffffffffffffffffffffffffffff169050600073ffffffffffffffffffffffffffffffffffffffff168173ffffffffffffffffffffffffffffffffffffffff161415610ce3576040517f08c379a00000000000000000000000000000000000000000000000000000000081526004018080602001828103825260148152602001807f546f6b656e20646f6573206e6f7420657869737400000000000000000000000081525060200191505060405180910390fd5b80915050919050565b60036020528160005260406000206020528060005260406000206000915091509054906101000a900460ff1681565b6000600160008373ffffffffffffffffffffffffffffffffffffffff1673ffffffffffffffffffffffffffffffffffffffff168152602001908152602001600020549050919050565b60006020528060005260406000206000915054906101000a900473ffffffffffffffffffffffffffffffffffffffff1681565b60606040518060400160405280600381526020017f4e46540000000000000000000000000000000000000000000000000000000000815250905090565b80600360003373ffffffffffffffffffffffffffffffffffffffff1673ffffffffffffffffffffffffffffffffffffffff16815260200190815260200160002060008473ffffffffffffffffffffffffffffffffffffffff1673ffffffffffffffffffffffffffffffffffffffff16815260200190815260200160002060006101000a81548160ff0219169083151502179055508173ffffffffffffffffffffffffffffffffffffffff163373ffffffffffffffffffffffffffffffffffffffff167f17307eab39ab6107e8899845ad3d59bd9653f200f220920489ca2b5937696c3183604051808215151515815260200191505060405180910390a35050565b60016020528060005260406000206000915090505481565b600160003373ffffffffffffffffffffffffffffffffffffffff1673ffffffffffffffffffffffffffffffffffffffff16815260200190815260200160002054811115610f3957600080fd5b80600160003373ffffffffffffffffffffffffffffffffffffffff1673ffffffffffffffffffffffffffffffffffffffff1681526020019081526020016000205403600160003373ffffffffffffffffffffffffffffffffffffffff1673ffffffffffffffffffffffffffffffffffffffff1681526020019081526020016000208190555080600160003373ffffffffffffffffffffffffffffffffffffffff1673ffffffffffffffffffffffffffffffffffffffff1681526020019081526020016000205401600160008473ffffffffffffffffffffffffffffffffffffffff1673ffffffffffffffffffffffffffffffffffffffff168152602001908152602001600020819055505050565b60026020528060005260406000206000915054906101000a900473ffffffffffffffffffffffffffffffffffffffff1681565b6000600360003373ffffffffffffffffffffffffffffffffffffffff1673ffffffffffffffffffffffffffffffffffffffff16815260200190815260200160002060008373ffffffffffffffffffffffffffffffffffffffff1673ffffffffffffffffffffffffffffffffffffffff16815260200190815260200160002060009054906101000a900460ff1690509291505056fea265627a7a72315820da136ce8c0805ea2d9e7d356fd88c43371c9e0dd52183d8645fa109fa60d291e64736f6c63430005100032",
  "source": "pragma solidity >=0.4.22 <0.9.0;\r\n\r\n\r\ninterface EIP721 {\r\n    //ERC721 interface\r\n    //Metadata\r\n    function name() external view returns (string memory);\r\n    function symbol() external view returns (string memory);\r\n    //function tokenURI(uint256 _tokenId) external view returns (string);\r\n\r\n    //record on blockchain\r\n    event Transfer(address indexed _from, address indexed _to, uint256 indexed _tokenId);\r\n    event Approval(address indexed _owner, address indexed _approved, uint256 indexed _tokenId);\r\n    event ApprovalForAll(address indexed _owner, address indexed _operator, bool _approved);\r\n\r\n    //achieve function\r\n\r\n    function totalSupply() external view returns (uint256);\r\n\r\n    function balanceOf(address owner) external view returns (uint256);\r\n\r\n    function approve(address _to, uint256 _tokenId) external payable;\r\n\r\n    function ownerOf(uint256 _tokenId) external view returns (address);\r\n\r\n    function setApprovalForAll(address _operator, bool _approved) external;\r\n\r\n    function getApproved(uint256 _tokenId) external view returns (address);\r\n\r\n    function isApprovedForAll(address owner, address _operator) external view returns (bool);\r\n\r\n    function transfer(address _to, uint256 amount) external payable;\r\n\r\n    function transferFrom(address _from, address _to, uint256 _tokenId) external payable;\r\n\r\n    //    function safeTransferFrom(address _from, address _to, uint256 _tokenId, bytes data) external payable;\r\n    //\r\n    //    function safeTransferFrom(address _from, address _to, uint256 _tokenId) external payable;\r\n}\r\n\r\ncontract NFToken is EIP721 {\r\n\r\n    uint8 public constant decimals = 3;\r\n    uint256 private constant totalTokens = 10000000;\r\n    constructor() public {\r\n        _numTokenPerson[msg.sender] = 10000;\r\n    }\r\n\r\n    //ERC721 Metadata\r\n    function name() external view returns(string memory){\r\n        return \"NFToken\";\r\n    }\r\n\r\n    function symbol() external view returns(string memory){\r\n        return \"NFT\";\r\n    }\r\n//    string private constant tokenName = \"NFToken\";\r\n//    string public constant symbol = \"NFT\";\r\n    //json 描述_tokenId资产的URI。指向一个符合ERC721元数据描述结构的JSON文件\r\n    //string public tokenURI;\r\n\r\n    mapping(uint256 => address) public _owner;\r\n    mapping(address => uint256) public _numTokenPerson;\r\n    mapping(uint256 => address) public _approvals;\r\n    mapping(address => mapping(address => bool)) public _approvalsForAll;\r\n\r\n    function transfer(address _to, uint256 _amount) external payable{\r\n        require(_amount <= _numTokenPerson[msg.sender]);\r\n        _numTokenPerson[msg.sender] = _numTokenPerson[msg.sender]-_amount;\r\n        _numTokenPerson[_to] = _numTokenPerson[msg.sender]+_amount;\r\n    }\r\n\r\n    function totalSupply() external view returns (uint256){\r\n        return totalTokens;\r\n    }\r\n\r\n    function ownerOf(uint256 _tokenId) external view returns (address){\r\n        address owner = _owner[_tokenId];\r\n        //address(0) - address is null\r\n        require(owner != address(0), \"Token does not exist\");\r\n        return owner;\r\n    }\r\n\r\n    function balanceOf(address owner) external view returns (uint256){\r\n        return _numTokenPerson[owner];\r\n    }\r\n\r\n\r\n    //give _tokenId to address approved\r\n    function approve(address _to, uint256 _tokenId) external payable {\r\n        address owner = _owner[_tokenId];\r\n        require(owner == msg.sender);\r\n        require(owner != _to);\r\n        _approvals[_tokenId] = _to;\r\n\r\n        //write to log\r\n        emit Approval(owner, _to, _tokenId);\r\n    }\r\n\r\n    //get the address of _tokenId\r\n    function getApproved(uint256 _tokenId) external view returns (address){\r\n        return _approvals[_tokenId];\r\n    }\r\n\r\n    //cancel or set the operator for _operator\r\n    function setApprovalForAll(address _operator, bool _approved) external {\r\n        _approvalsForAll[msg.sender][_operator] = _approved;\r\n        emit ApprovalForAll(msg.sender, _operator, _approved);\r\n    }\r\n\r\n    function isApprovedForAll(address owner, address _operator) external view returns (bool){\r\n        return _approvalsForAll[msg.sender][_operator];\r\n    }\r\n\r\n    function transferFrom(address _from, address _to, uint256 _tokenId) external payable {\r\n        require(_from != address(0));\r\n        require(_to != address(0));\r\n        require(_owner[_tokenId] == _from);\r\n\r\n        _numTokenPerson[_from]--;\r\n        _numTokenPerson[_to]++;\r\n        _owner[_tokenId] = _to;\r\n        _approvals[_tokenId] = address(0);\r\n\r\n        emit Transfer(_from, _to, _tokenId);\r\n    }\r\n\r\n    //    function safeTransferFrom(address _from, address _to, uint256 _tokenId, bytes data) external payable{\r\n    //\r\n    //    }\r\n    //\r\n    //    function safeTransferFrom(address _from, address _to, uint256 _tokenId) external payable{\r\n    //\r\n    //    }\r\n}\r\n",
  "sourcePath": "E:/myproject/contracts/NFToken.sol",
  "compiler": {
    "name": "solc",
    "version": "0.5.16+commit.9c3226ce.Emscripten.clang"
  },
  "schemaVersion": "3.3.4",
  "updatedAt": "2021-05-06T23:33:55.616Z",
  "networkType": "ethereum",
  "devdoc": {
    "methods": {}
  },
  "userdoc": {
    "methods": {}
  }
}