{
  "contractName": "testContract",
  "abi": [
    {
      "constant": false,
      "inputs": [],
      "name": "deposit",
      "outputs": [],
      "payable": true,
      "stateMutability": "payable",
      "type": "function"
    },
    {
      "constant": true,
      "inputs": [],
      "name": "getBalance",
      "outputs": [
        {
          "name": "",
          "type": "uint256"
        }
      ],
      "payable": false,
      "stateMutability": "view",
      "type": "function"
    },
    {
      "constant": false,
      "inputs": [],
      "name": "getOwner",
      "outputs": [
        {
          "name": "",
          "type": "address"
        }
      ],
      "payable": false,
      "stateMutability": "nonpayable",
      "type": "function"
    },
    {
      "constant": true,
      "inputs": [],
      "name": "getOwnerBalance",
      "outputs": [
        {
          "name": "",
          "type": "uint256"
        }
      ],
      "payable": false,
      "stateMutability": "view",
      "type": "function"
    }
  ],
  "bytecode": "0x608060405234801561001057600080fd5b5061020a806100206000396000f300608060405260043610610062576000357c0100000000000000000000000000000000000000000000000000000000900463ffffffff16806312065fe014610067578063590791f214610092578063893d20e8146100bd578063d0e30db014610114575b600080fd5b34801561007357600080fd5b5061007c61011e565b6040518082815260200191505060405180910390f35b34801561009e57600080fd5b506100a7610155565b6040518082815260200191505060405180910390f35b3480156100c957600080fd5b506100d2610174565b604051808273ffffffffffffffffffffffffffffffffffffffff1673ffffffffffffffffffffffffffffffffffffffff16815260200191505060405180910390f35b61011c61017c565b005b600080725f27b38406ca25d40ac9b950a9e7b2f3c8033f90508073ffffffffffffffffffffffffffffffffffffffff163191505090565b60003373ffffffffffffffffffffffffffffffffffffffff1631905090565b600033905090565b6000725f27b38406ca25d40ac9b950a9e7b2f3c8033f90508073ffffffffffffffffffffffffffffffffffffffff166108fc349081150290604051600060405180830381858888f193505050501580156101da573d6000803e3d6000fd5b50505600a165627a7a7230582074164b527e4a6deafb94c38e4a9ea3d325e61e62e507aebf6a6818862ba9e8100029",
  "source": "pragma solidity ^0.4.0;\r\n\r\ncontract testContract {\r\n    function deposit() payable {\r\n        address acc = 0x005F27B38406Ca25d40ac9B950A9E7b2F3c8033f;\r\n        acc.transfer(msg.value);//向acc地址转账msg.value个以太坊\r\n    }\r\n\r\n    function getBalance() constant returns(uint){\r\n        address acc = 0x005F27B38406Ca25d40ac9B950A9E7b2F3c8033f;\r\n        return acc.balance;\r\n    }\r\n\r\n    function getOwner() public returns(address){\r\n        return msg.sender;\r\n    }\r\n\r\n    function getOwnerBalance() constant returns(uint){\r\n\r\n        return msg.sender.balance;\r\n    }\r\n}\r\n",
  "sourcePath": "E:/myproject/contracts/testContract.sol",
  "compiler": {
    "name": "solc",
    "version": "0.4.24+commit.e67f0147.Emscripten.clang"
  },
  "schemaVersion": "3.4.1",
  "updatedAt": "2021-06-17T21:52:37.189Z",
  "networkType": "ethereum",
  "devdoc": {
    "methods": {}
  },
  "userdoc": {
    "methods": {}
  }
}